{
  "address": "0x7bE5f4d2E2Ede0DcA8dDC9F7f2d96c812DEFD891",
  "abi": [
    {
      "inputs": [
        {
          "internalType": "address",
          "name": "vrfCoordinatorV2",
          "type": "address"
        },
        {
          "internalType": "uint64",
          "name": "subscriptionId",
          "type": "uint64"
        },
        {
          "internalType": "bytes32",
          "name": "keyHash",
          "type": "bytes32"
        },
        {
          "internalType": "uint32",
          "name": "gasLimit",
          "type": "uint32"
        },
        {
          "internalType": "string[3]",
          "name": "tokenUris",
          "type": "string[3]"
        },
        {
          "internalType": "uint256",
          "name": "mintFee",
          "type": "uint256"
        }
      ],
      "stateMutability": "nonpayable",
      "type": "constructor"
    },
    {
      "inputs": [
        {
          "internalType": "address",
          "name": "sender",
          "type": "address"
        },
        {
          "internalType": "uint256",
          "name": "tokenId",
          "type": "uint256"
        },
        {
          "internalType": "address",
          "name": "owner",
          "type": "address"
        }
      ],
      "name": "ERC721IncorrectOwner",
      "type": "error"
    },
    {
      "inputs": [
        {
          "internalType": "address",
          "name": "operator",
          "type": "address"
        },
        {
          "internalType": "uint256",
          "name": "tokenId",
          "type": "uint256"
        }
      ],
      "name": "ERC721InsufficientApproval",
      "type": "error"
    },
    {
      "inputs": [
        {
          "internalType": "address",
          "name": "approver",
          "type": "address"
        }
      ],
      "name": "ERC721InvalidApprover",
      "type": "error"
    },
    {
      "inputs": [
        {
          "internalType": "address",
          "name": "operator",
          "type": "address"
        }
      ],
      "name": "ERC721InvalidOperator",
      "type": "error"
    },
    {
      "inputs": [
        {
          "internalType": "address",
          "name": "owner",
          "type": "address"
        }
      ],
      "name": "ERC721InvalidOwner",
      "type": "error"
    },
    {
      "inputs": [
        {
          "internalType": "address",
          "name": "receiver",
          "type": "address"
        }
      ],
      "name": "ERC721InvalidReceiver",
      "type": "error"
    },
    {
      "inputs": [
        {
          "internalType": "address",
          "name": "sender",
          "type": "address"
        }
      ],
      "name": "ERC721InvalidSender",
      "type": "error"
    },
    {
      "inputs": [
        {
          "internalType": "uint256",
          "name": "tokenId",
          "type": "uint256"
        }
      ],
      "name": "ERC721NonexistentToken",
      "type": "error"
    },
    {
      "inputs": [
        {
          "internalType": "address",
          "name": "have",
          "type": "address"
        },
        {
          "internalType": "address",
          "name": "want",
          "type": "address"
        }
      ],
      "name": "OnlyCoordinatorCanFulfill",
      "type": "error"
    },
    {
      "inputs": [
        {
          "internalType": "address",
          "name": "owner",
          "type": "address"
        }
      ],
      "name": "OwnableInvalidOwner",
      "type": "error"
    },
    {
      "inputs": [
        {
          "internalType": "address",
          "name": "account",
          "type": "address"
        }
      ],
      "name": "OwnableUnauthorizedAccount",
      "type": "error"
    },
    {
      "inputs": [],
      "name": "RandomIpfsNft_RangeOutOfBounds",
      "type": "error"
    },
    {
      "inputs": [],
      "name": "RequestIpfsNft_InsufficientMintFee",
      "type": "error"
    },
    {
      "inputs": [],
      "name": "RequestIpfsNft_TransferFailed",
      "type": "error"
    },
    {
      "anonymous": false,
      "inputs": [
        {
          "indexed": true,
          "internalType": "address",
          "name": "owner",
          "type": "address"
        },
        {
          "indexed": true,
          "internalType": "address",
          "name": "approved",
          "type": "address"
        },
        {
          "indexed": true,
          "internalType": "uint256",
          "name": "tokenId",
          "type": "uint256"
        }
      ],
      "name": "Approval",
      "type": "event"
    },
    {
      "anonymous": false,
      "inputs": [
        {
          "indexed": true,
          "internalType": "address",
          "name": "owner",
          "type": "address"
        },
        {
          "indexed": true,
          "internalType": "address",
          "name": "operator",
          "type": "address"
        },
        {
          "indexed": false,
          "internalType": "bool",
          "name": "approved",
          "type": "bool"
        }
      ],
      "name": "ApprovalForAll",
      "type": "event"
    },
    {
      "anonymous": false,
      "inputs": [
        {
          "indexed": false,
          "internalType": "uint256",
          "name": "_fromTokenId",
          "type": "uint256"
        },
        {
          "indexed": false,
          "internalType": "uint256",
          "name": "_toTokenId",
          "type": "uint256"
        }
      ],
      "name": "BatchMetadataUpdate",
      "type": "event"
    },
    {
      "anonymous": false,
      "inputs": [
        {
          "indexed": false,
          "internalType": "uint256",
          "name": "_tokenId",
          "type": "uint256"
        }
      ],
      "name": "MetadataUpdate",
      "type": "event"
    },
    {
      "anonymous": false,
      "inputs": [
        {
          "indexed": false,
          "internalType": "enum RandomIpfsNft.Breed",
          "name": "dogBreed",
          "type": "uint8"
        },
        {
          "indexed": false,
          "internalType": "address",
          "name": "minter",
          "type": "address"
        }
      ],
      "name": "NftMinted",
      "type": "event"
    },
    {
      "anonymous": false,
      "inputs": [
        {
          "indexed": false,
          "internalType": "uint256",
          "name": "",
          "type": "uint256"
        },
        {
          "indexed": false,
          "internalType": "address",
          "name": "",
          "type": "address"
        }
      ],
      "name": "NftRequested",
      "type": "event"
    },
    {
      "anonymous": false,
      "inputs": [
        {
          "indexed": true,
          "internalType": "address",
          "name": "previousOwner",
          "type": "address"
        },
        {
          "indexed": true,
          "internalType": "address",
          "name": "newOwner",
          "type": "address"
        }
      ],
      "name": "OwnershipTransferred",
      "type": "event"
    },
    {
      "anonymous": false,
      "inputs": [
        {
          "indexed": true,
          "internalType": "address",
          "name": "from",
          "type": "address"
        },
        {
          "indexed": true,
          "internalType": "address",
          "name": "to",
          "type": "address"
        },
        {
          "indexed": true,
          "internalType": "uint256",
          "name": "tokenId",
          "type": "uint256"
        }
      ],
      "name": "Transfer",
      "type": "event"
    },
    {
      "inputs": [
        {
          "internalType": "address",
          "name": "to",
          "type": "address"
        },
        {
          "internalType": "uint256",
          "name": "tokenId",
          "type": "uint256"
        }
      ],
      "name": "approve",
      "outputs": [],
      "stateMutability": "nonpayable",
      "type": "function"
    },
    {
      "inputs": [
        {
          "internalType": "address",
          "name": "owner",
          "type": "address"
        }
      ],
      "name": "balanceOf",
      "outputs": [
        {
          "internalType": "uint256",
          "name": "",
          "type": "uint256"
        }
      ],
      "stateMutability": "view",
      "type": "function"
    },
    {
      "inputs": [
        {
          "internalType": "uint256",
          "name": "tokenId",
          "type": "uint256"
        }
      ],
      "name": "getApproved",
      "outputs": [
        {
          "internalType": "address",
          "name": "",
          "type": "address"
        }
      ],
      "stateMutability": "view",
      "type": "function"
    },
    {
      "inputs": [
        {
          "internalType": "uint256",
          "name": "moddedRng",
          "type": "uint256"
        }
      ],
      "name": "getBreedFromModdedRng",
      "outputs": [
        {
          "internalType": "enum RandomIpfsNft.Breed",
          "name": "",
          "type": "uint8"
        }
      ],
      "stateMutability": "pure",
      "type": "function"
    },
    {
      "inputs": [],
      "name": "getMintFee",
      "outputs": [
        {
          "internalType": "uint256",
          "name": "",
          "type": "uint256"
        }
      ],
      "stateMutability": "view",
      "type": "function"
    },
    {
      "inputs": [],
      "name": "getTokenCounter",
      "outputs": [
        {
          "internalType": "uint256",
          "name": "",
          "type": "uint256"
        }
      ],
      "stateMutability": "view",
      "type": "function"
    },
    {
      "inputs": [],
      "name": "getTokenUris",
      "outputs": [
        {
          "internalType": "string[]",
          "name": "",
          "type": "string[]"
        }
      ],
      "stateMutability": "view",
      "type": "function"
    },
    {
      "inputs": [
        {
          "internalType": "address",
          "name": "owner",
          "type": "address"
        },
        {
          "internalType": "address",
          "name": "operator",
          "type": "address"
        }
      ],
      "name": "isApprovedForAll",
      "outputs": [
        {
          "internalType": "bool",
          "name": "",
          "type": "bool"
        }
      ],
      "stateMutability": "view",
      "type": "function"
    },
    {
      "inputs": [],
      "name": "name",
      "outputs": [
        {
          "internalType": "string",
          "name": "",
          "type": "string"
        }
      ],
      "stateMutability": "view",
      "type": "function"
    },
    {
      "inputs": [],
      "name": "owner",
      "outputs": [
        {
          "internalType": "address",
          "name": "",
          "type": "address"
        }
      ],
      "stateMutability": "view",
      "type": "function"
    },
    {
      "inputs": [
        {
          "internalType": "uint256",
          "name": "tokenId",
          "type": "uint256"
        }
      ],
      "name": "ownerOf",
      "outputs": [
        {
          "internalType": "address",
          "name": "",
          "type": "address"
        }
      ],
      "stateMutability": "view",
      "type": "function"
    },
    {
      "inputs": [
        {
          "internalType": "uint256",
          "name": "requestId",
          "type": "uint256"
        },
        {
          "internalType": "uint256[]",
          "name": "randomWords",
          "type": "uint256[]"
        }
      ],
      "name": "rawFulfillRandomWords",
      "outputs": [],
      "stateMutability": "nonpayable",
      "type": "function"
    },
    {
      "inputs": [],
      "name": "renounceOwnership",
      "outputs": [],
      "stateMutability": "nonpayable",
      "type": "function"
    },
    {
      "inputs": [],
      "name": "requestNft",
      "outputs": [
        {
          "internalType": "uint256",
          "name": "requestId",
          "type": "uint256"
        }
      ],
      "stateMutability": "payable",
      "type": "function"
    },
    {
      "inputs": [
        {
          "internalType": "uint256",
          "name": "",
          "type": "uint256"
        }
      ],
      "name": "s_requestToSender",
      "outputs": [
        {
          "internalType": "address",
          "name": "",
          "type": "address"
        }
      ],
      "stateMutability": "view",
      "type": "function"
    },
    {
      "inputs": [
        {
          "internalType": "address",
          "name": "from",
          "type": "address"
        },
        {
          "internalType": "address",
          "name": "to",
          "type": "address"
        },
        {
          "internalType": "uint256",
          "name": "tokenId",
          "type": "uint256"
        }
      ],
      "name": "safeTransferFrom",
      "outputs": [],
      "stateMutability": "nonpayable",
      "type": "function"
    },
    {
      "inputs": [
        {
          "internalType": "address",
          "name": "from",
          "type": "address"
        },
        {
          "internalType": "address",
          "name": "to",
          "type": "address"
        },
        {
          "internalType": "uint256",
          "name": "tokenId",
          "type": "uint256"
        },
        {
          "internalType": "bytes",
          "name": "data",
          "type": "bytes"
        }
      ],
      "name": "safeTransferFrom",
      "outputs": [],
      "stateMutability": "nonpayable",
      "type": "function"
    },
    {
      "inputs": [
        {
          "internalType": "address",
          "name": "operator",
          "type": "address"
        },
        {
          "internalType": "bool",
          "name": "approved",
          "type": "bool"
        }
      ],
      "name": "setApprovalForAll",
      "outputs": [],
      "stateMutability": "nonpayable",
      "type": "function"
    },
    {
      "inputs": [
        {
          "internalType": "bytes4",
          "name": "interfaceId",
          "type": "bytes4"
        }
      ],
      "name": "supportsInterface",
      "outputs": [
        {
          "internalType": "bool",
          "name": "",
          "type": "bool"
        }
      ],
      "stateMutability": "view",
      "type": "function"
    },
    {
      "inputs": [],
      "name": "symbol",
      "outputs": [
        {
          "internalType": "string",
          "name": "",
          "type": "string"
        }
      ],
      "stateMutability": "view",
      "type": "function"
    },
    {
      "inputs": [
        {
          "internalType": "uint256",
          "name": "tokenId",
          "type": "uint256"
        }
      ],
      "name": "tokenURI",
      "outputs": [
        {
          "internalType": "string",
          "name": "",
          "type": "string"
        }
      ],
      "stateMutability": "view",
      "type": "function"
    },
    {
      "inputs": [
        {
          "internalType": "address",
          "name": "from",
          "type": "address"
        },
        {
          "internalType": "address",
          "name": "to",
          "type": "address"
        },
        {
          "internalType": "uint256",
          "name": "tokenId",
          "type": "uint256"
        }
      ],
      "name": "transferFrom",
      "outputs": [],
      "stateMutability": "nonpayable",
      "type": "function"
    },
    {
      "inputs": [
        {
          "internalType": "address",
          "name": "newOwner",
          "type": "address"
        }
      ],
      "name": "transferOwnership",
      "outputs": [],
      "stateMutability": "nonpayable",
      "type": "function"
    },
    {
      "inputs": [],
      "name": "withdraw",
      "outputs": [],
      "stateMutability": "nonpayable",
      "type": "function"
    }
  ],
  "transactionHash": "0x5f61d2196c751dded3e9587b2fffe69b4c45f644ad08d433dd859ba9b3a6221b",
  "args": [
    "0x8103B0A8A00be2DDC778e6e7eaa21791Cd364625",
    8599,
    "0x474e34a077df58807dbe9c96d3c009b23b3c6d0cce433e59bbf5b34f823bc56c",
    "500000",
    [
      "ipfs://QmaVkBn2tKmjbhphU7eyztbvSQU5EXDdqRyXZtRhSGgJGo",
      "ipfs://QmYQC5aGZu2PTH8XzbJrbDnvhj3gVs7ya33H9mqUNvST3d",
      "ipfs://QmZYmH5iDbD6v3U2ixoVAjioSzvWJszDzYdbeCLquGSpVm"
    ],
    "10000000000000000"
  ],
  "numDeployments": 1,
  "solcInputHash": "b875381341288f5558c8efaea8c0b4f0",
  "bytecode": "0x6101406040523480156200001257600080fd5b5060405162004032380380620040328339818101604052810190620000389190620007b7565b336040518060400160405280600f81526020017f52616e646f6d2049706673204e465400000000000000000000000000000000008152506040518060400160405280600381526020017f52494e0000000000000000000000000000000000000000000000000000000000815250888073ffffffffffffffffffffffffffffffffffffffff1660808173ffffffffffffffffffffffffffffffffffffffff1681525050508160009081620000ec919062000ab3565b508060019081620000fe919062000ab3565b505050600073ffffffffffffffffffffffffffffffffffffffff168173ffffffffffffffffffffffffffffffffffffffff1603620001765760006040517f1e4fbdf70000000000000000000000000000000000000000000000000000000081526004016200016d919062000bab565b60405180910390fd5b62000187816200022660201b60201c565b508573ffffffffffffffffffffffffffffffffffffffff1660a08173ffffffffffffffffffffffffffffffffffffffff16815250508467ffffffffffffffff1660c08167ffffffffffffffff16815250508360e081815250508263ffffffff166101008163ffffffff1681525050600060098190555081600890600362000210929190620002ec565b5080610120818152505050505050505062000bc8565b6000600760009054906101000a900473ffffffffffffffffffffffffffffffffffffffff16905081600760006101000a81548173ffffffffffffffffffffffffffffffffffffffff021916908373ffffffffffffffffffffffffffffffffffffffff1602179055508173ffffffffffffffffffffffffffffffffffffffff168173ffffffffffffffffffffffffffffffffffffffff167f8be0079c531659141344cd1fd0a4f28419497f9722a3daafe3b4186f6b6457e060405160405180910390a35050565b82805482825590600052602060002090810192821562000339579160200282015b828111156200033857825182908162000327919062000ab3565b50916020019190600101906200030d565b5b5090506200034891906200034c565b5090565b5b8082111562000370576000818162000366919062000374565b506001016200034d565b5090565b5080546200038290620008ac565b6000825580601f10620003965750620003b7565b601f016020900490600052602060002090810190620003b69190620003ba565b5b50565b5b80821115620003d5576000816000905550600101620003bb565b5090565b6000604051905090565b600080fd5b600080fd5b600073ffffffffffffffffffffffffffffffffffffffff82169050919050565b60006200041a82620003ed565b9050919050565b6200042c816200040d565b81146200043857600080fd5b50565b6000815190506200044c8162000421565b92915050565b600067ffffffffffffffff82169050919050565b620004718162000452565b81146200047d57600080fd5b50565b600081519050620004918162000466565b92915050565b6000819050919050565b620004ac8162000497565b8114620004b857600080fd5b50565b600081519050620004cc81620004a1565b92915050565b600063ffffffff82169050919050565b620004ed81620004d2565b8114620004f957600080fd5b50565b6000815190506200050d81620004e2565b92915050565b600080fd5b6000601f19601f8301169050919050565b7f4e487b7100000000000000000000000000000000000000000000000000000000600052604160045260246000fd5b620005638262000518565b810181811067ffffffffffffffff8211171562000585576200058462000529565b5b80604052505050565b60006200059a620003d9565b9050620005a8828262000558565b919050565b600067ffffffffffffffff821115620005cb57620005ca62000529565b5b602082029050919050565b600080fd5b600080fd5b600067ffffffffffffffff821115620005fe57620005fd62000529565b5b620006098262000518565b9050602081019050919050565b60005b838110156200063657808201518184015260208101905062000619565b60008484015250505050565b6000620006596200065384620005e0565b6200058e565b905082815260208101848484011115620006785762000677620005db565b5b6200068584828562000616565b509392505050565b600082601f830112620006a557620006a462000513565b5b8151620006b784826020860162000642565b91505092915050565b6000620006d7620006d184620005ad565b6200058e565b90508060208402830185811115620006f457620006f3620005d6565b5b835b818110156200074257805167ffffffffffffffff8111156200071d576200071c62000513565b5b8086016200072c89826200068d565b85526020850194505050602081019050620006f6565b5050509392505050565b600082601f83011262000764576200076362000513565b5b600362000773848285620006c0565b91505092915050565b6000819050919050565b62000791816200077c565b81146200079d57600080fd5b50565b600081519050620007b18162000786565b92915050565b60008060008060008060c08789031215620007d757620007d6620003e3565b5b6000620007e789828a016200043b565b9650506020620007fa89828a0162000480565b95505060406200080d89828a01620004bb565b94505060606200082089828a01620004fc565b935050608087015167ffffffffffffffff811115620008445762000843620003e8565b5b6200085289828a016200074c565b92505060a06200086589828a01620007a0565b9150509295509295509295565b600081519050919050565b7f4e487b7100000000000000000000000000000000000000000000000000000000600052602260045260246000fd5b60006002820490506001821680620008c557607f821691505b602082108103620008db57620008da6200087d565b5b50919050565b60008190508160005260206000209050919050565b60006020601f8301049050919050565b600082821b905092915050565b600060088302620009457fffffffffffffffffffffffffffffffffffffffffffffffffffffffffffffffff8262000906565b62000951868362000906565b95508019841693508086168417925050509392505050565b6000819050919050565b6000620009946200098e62000988846200077c565b62000969565b6200077c565b9050919050565b6000819050919050565b620009b08362000973565b620009c8620009bf826200099b565b84845462000913565b825550505050565b600090565b620009df620009d0565b620009ec818484620009a5565b505050565b5b8181101562000a145762000a08600082620009d5565b600181019050620009f2565b5050565b601f82111562000a635762000a2d81620008e1565b62000a3884620008f6565b8101602085101562000a48578190505b62000a6062000a5785620008f6565b830182620009f1565b50505b505050565b600082821c905092915050565b600062000a886000198460080262000a68565b1980831691505092915050565b600062000aa3838362000a75565b9150826002028217905092915050565b62000abe8262000872565b67ffffffffffffffff81111562000ada5762000ad962000529565b5b62000ae68254620008ac565b62000af382828562000a18565b600060209050601f83116001811462000b2b576000841562000b16578287015190505b62000b22858262000a95565b86555062000b92565b601f19841662000b3b86620008e1565b60005b8281101562000b655784890151825560018201915060208501945060208101905062000b3e565b8683101562000b85578489015162000b81601f89168262000a75565b8355505b6001600288020188555050505b505050505050565b62000ba5816200040d565b82525050565b600060208201905062000bc2600083018462000b9a565b92915050565b60805160a05160c05160e051610100516101205161340c62000c2660003960008181610a810152610c5d01526000610d3701526000610cf301526000610d1401526000610cb70152600081816106cc0152610720015261340c6000f3fe60806040526004361061014b5760003560e01c8063715018a6116100b6578063aa1524911161006f578063aa15249114610490578063b88d4fde146104ae578063c87b56dd146104d7578063e985e9c514610514578063eb612dfb14610551578063f2fde38b1461057c5761014b565b8063715018a6146103925780637a5caab3146103a95780638da5cb5b146103d457806395d89b41146103ff578063a22cb4651461042a578063a51cccf3146104535761014b565b80632e602d29116101085780632e602d29146102705780633ccfd60b146102ad57806342842e0e146102c45780636352211e146102ed5780636e02007d1461032a57806370a08231146103555761014b565b806301ffc9a71461015057806306fdde031461018d578063081812fc146101b8578063095ea7b3146101f55780631fe543e31461021e57806323b872dd14610247575b600080fd5b34801561015c57600080fd5b506101776004803603810190610172919061241b565b6105a5565b6040516101849190612463565b60405180910390f35b34801561019957600080fd5b506101a2610606565b6040516101af919061250e565b60405180910390f35b3480156101c457600080fd5b506101df60048036038101906101da9190612566565b610698565b6040516101ec91906125d4565b60405180910390f35b34801561020157600080fd5b5061021c6004803603810190610217919061261b565b6106b4565b005b34801561022a57600080fd5b50610245600480360381019061024091906127a3565b6106ca565b005b34801561025357600080fd5b5061026e600480360381019061026991906127ff565b61078a565b005b34801561027c57600080fd5b5061029760048036038101906102929190612566565b61088c565b6040516102a491906125d4565b60405180910390f35b3480156102b957600080fd5b506102c26108bf565b005b3480156102d057600080fd5b506102eb60048036038101906102e691906127ff565b610973565b005b3480156102f957600080fd5b50610314600480360381019061030f9190612566565b610993565b60405161032191906125d4565b60405180910390f35b34801561033657600080fd5b5061033f6109a5565b60405161034c9190612861565b60405180910390f35b34801561036157600080fd5b5061037c6004803603810190610377919061287c565b6109af565b6040516103899190612861565b60405180910390f35b34801561039e57600080fd5b506103a7610a69565b005b3480156103b557600080fd5b506103be610a7d565b6040516103cb9190612861565b60405180910390f35b3480156103e057600080fd5b506103e9610aa5565b6040516103f691906125d4565b60405180910390f35b34801561040b57600080fd5b50610414610acf565b604051610421919061250e565b60405180910390f35b34801561043657600080fd5b50610451600480360381019061044c91906128d5565b610b61565b005b34801561045f57600080fd5b5061047a60048036038101906104759190612566565b610b77565b604051610487919061298c565b60405180910390f35b610498610c59565b6040516104a59190612861565b60405180910390f35b3480156104ba57600080fd5b506104d560048036038101906104d09190612a5c565b610e4b565b005b3480156104e357600080fd5b506104fe60048036038101906104f99190612566565b610e68565b60405161050b919061250e565b60405180910390f35b34801561052057600080fd5b5061053b60048036038101906105369190612adf565b610f7b565b6040516105489190612463565b60405180910390f35b34801561055d57600080fd5b5061056661100f565b6040516105739190612c2b565b60405180910390f35b34801561058857600080fd5b506105a3600480360381019061059e919061287c565b6110e8565b005b6000634906490660e01b7bffffffffffffffffffffffffffffffffffffffffffffffffffffffff1916827bffffffffffffffffffffffffffffffffffffffffffffffffffffffff191614806105ff57506105fe8261116e565b5b9050919050565b60606000805461061590612c7c565b80601f016020809104026020016040519081016040528092919081815260200182805461064190612c7c565b801561068e5780601f106106635761010080835404028352916020019161068e565b820191906000526020600020905b81548152906001019060200180831161067157829003601f168201915b5050505050905090565b60006106a382611250565b506106ad826112d8565b9050919050565b6106c682826106c1611315565b61131d565b5050565b7f000000000000000000000000000000000000000000000000000000000000000073ffffffffffffffffffffffffffffffffffffffff163373ffffffffffffffffffffffffffffffffffffffff161461077c57337f00000000000000000000000000000000000000000000000000000000000000006040517f1cf993f4000000000000000000000000000000000000000000000000000000008152600401610773929190612cad565b60405180910390fd5b610786828261132f565b5050565b600073ffffffffffffffffffffffffffffffffffffffff168273ffffffffffffffffffffffffffffffffffffffff16036107fc5760006040517f64a0ae920000000000000000000000000000000000000000000000000000000081526004016107f391906125d4565b60405180910390fd5b6000610810838361080b611315565b6114b4565b90508373ffffffffffffffffffffffffffffffffffffffff168173ffffffffffffffffffffffffffffffffffffffff1614610886578382826040517f64283d7b00000000000000000000000000000000000000000000000000000000815260040161087d93929190612cd6565b60405180910390fd5b50505050565b600a6020528060005260406000206000915054906101000a900473ffffffffffffffffffffffffffffffffffffffff1681565b6108c76116ce565b600047905060003373ffffffffffffffffffffffffffffffffffffffff16826040516108f290612d3e565b60006040518083038185875af1925050503d806000811461092f576040519150601f19603f3d011682016040523d82523d6000602084013e610934565b606091505b505090508061096f576040517f7cdbbadf00000000000000000000000000000000000000000000000000000000815260040160405180910390fd5b5050565b61098e83838360405180602001604052806000815250610e4b565b505050565b600061099e82611250565b9050919050565b6000600954905090565b60008073ffffffffffffffffffffffffffffffffffffffff168273ffffffffffffffffffffffffffffffffffffffff1603610a225760006040517f89c62b64000000000000000000000000000000000000000000000000000000008152600401610a1991906125d4565b60405180910390fd5b600360008373ffffffffffffffffffffffffffffffffffffffff1673ffffffffffffffffffffffffffffffffffffffff168152602001908152602001600020549050919050565b610a716116ce565b610a7b6000611755565b565b60007f0000000000000000000000000000000000000000000000000000000000000000905090565b6000600760009054906101000a900473ffffffffffffffffffffffffffffffffffffffff16905090565b606060018054610ade90612c7c565b80601f0160208091040260200160405190810160405280929190818152602001828054610b0a90612c7c565b8015610b575780601f10610b2c57610100808354040283529160200191610b57565b820191906000526020600020905b815481529060010190602001808311610b3a57829003601f168201915b5050505050905090565b610b73610b6c611315565b838361181b565b5050565b600080600090506000610b8861198a565b905060005b6003811015610c2157828510158015610bc7575082828260038110610bb557610bb4612d53565b5b6020020151610bc49190612db1565b85105b15610be957806002811115610bdf57610bde612915565b5b9350505050610c54565b818160038110610bfc57610bfb612d53565b5b602002015183610c0c9190612db1565b92508080610c1990612de5565b915050610b8d565b506040517f2b8299b500000000000000000000000000000000000000000000000000000000815260040160405180910390fd5b919050565b60007f0000000000000000000000000000000000000000000000000000000000000000341015610cb5576040517fa96edbb500000000000000000000000000000000000000000000000000000000815260040160405180910390fd5b7f000000000000000000000000000000000000000000000000000000000000000073ffffffffffffffffffffffffffffffffffffffff16635d3b1d307f00000000000000000000000000000000000000000000000000000000000000007f000000000000000000000000000000000000000000000000000000000000000060037f000000000000000000000000000000000000000000000000000000000000000060016040518663ffffffff1660e01b8152600401610d78959493929190612ea5565b6020604051808303816000875af1158015610d97573d6000803e3d6000fd5b505050506040513d601f19601f82011682018060405250810190610dbb9190612f0d565b905033600a600083815260200190815260200160002060006101000a81548173ffffffffffffffffffffffffffffffffffffffff021916908373ffffffffffffffffffffffffffffffffffffffff1602179055507ff873236e6cc0ecc5be1a9a35c95ee5b8d1ac4cc7bfef0cc5060391d6cc98e26b8133604051610e40929190612f3a565b60405180910390a190565b610e5684848461078a565b610e62848484846119b5565b50505050565b6060610e7382611250565b506000600660008481526020019081526020016000208054610e9490612c7c565b80601f0160208091040260200160405190810160405280929190818152602001828054610ec090612c7c565b8015610f0d5780601f10610ee257610100808354040283529160200191610f0d565b820191906000526020600020905b815481529060010190602001808311610ef057829003601f168201915b505050505090506000610f1e611b6c565b90506000815103610f33578192505050610f76565b600082511115610f68578082604051602001610f50929190612f9f565b60405160208183030381529060405292505050610f76565b610f7184611b83565b925050505b919050565b6000600560008473ffffffffffffffffffffffffffffffffffffffff1673ffffffffffffffffffffffffffffffffffffffff16815260200190815260200160002060008373ffffffffffffffffffffffffffffffffffffffff1673ffffffffffffffffffffffffffffffffffffffff16815260200190815260200160002060009054906101000a900460ff16905092915050565b60606008805480602002602001604051908101604052809291908181526020016000905b828210156110df57838290600052602060002001805461105290612c7c565b80601f016020809104026020016040519081016040528092919081815260200182805461107e90612c7c565b80156110cb5780601f106110a0576101008083540402835291602001916110cb565b820191906000526020600020905b8154815290600101906020018083116110ae57829003601f168201915b505050505081526020019060010190611033565b50505050905090565b6110f06116ce565b600073ffffffffffffffffffffffffffffffffffffffff168173ffffffffffffffffffffffffffffffffffffffff16036111625760006040517f1e4fbdf700000000000000000000000000000000000000000000000000000000815260040161115991906125d4565b60405180910390fd5b61116b81611755565b50565b60007f80ac58cd000000000000000000000000000000000000000000000000000000007bffffffffffffffffffffffffffffffffffffffffffffffffffffffff1916827bffffffffffffffffffffffffffffffffffffffffffffffffffffffff1916148061123957507f5b5e139f000000000000000000000000000000000000000000000000000000007bffffffffffffffffffffffffffffffffffffffffffffffffffffffff1916827bffffffffffffffffffffffffffffffffffffffffffffffffffffffff1916145b80611249575061124882611bec565b5b9050919050565b60008061125c83611c56565b9050600073ffffffffffffffffffffffffffffffffffffffff168173ffffffffffffffffffffffffffffffffffffffff16036112cf57826040517f7e2732890000000000000000000000000000000000000000000000000000000081526004016112c69190612861565b60405180910390fd5b80915050919050565b60006004600083815260200190815260200160002060009054906101000a900473ffffffffffffffffffffffffffffffffffffffff169050919050565b600033905090565b61132a8383836001611c93565b505050565b6000600a600084815260200190815260200160002060009054906101000a900473ffffffffffffffffffffffffffffffffffffffff16905060006009549050600060648460008151811061138657611385612d53565b5b60200260200101516113989190612ff2565b905060006113a582610b77565b90506113b18484611e58565b6114738360088360028111156113ca576113c9612915565b5b815481106113db576113da612d53565b5b9060005260206000200180546113f090612c7c565b80601f016020809104026020016040519081016040528092919081815260200182805461141c90612c7c565b80156114695780601f1061143e57610100808354040283529160200191611469565b820191906000526020600020905b81548152906001019060200180831161144c57829003601f168201915b5050505050611e76565b7f8a269f26b688e110e9cbd887d163dab35cae678fa353a0292de532c0cac1ecdc81856040516114a4929190613023565b60405180910390a1505050505050565b6000806114c084611c56565b9050600073ffffffffffffffffffffffffffffffffffffffff168373ffffffffffffffffffffffffffffffffffffffff161461150257611501818486611ed2565b5b600073ffffffffffffffffffffffffffffffffffffffff168173ffffffffffffffffffffffffffffffffffffffff161461159357611544600085600080611c93565b6001600360008373ffffffffffffffffffffffffffffffffffffffff1673ffffffffffffffffffffffffffffffffffffffff168152602001908152602001600020600082825403925050819055505b600073ffffffffffffffffffffffffffffffffffffffff168573ffffffffffffffffffffffffffffffffffffffff1614611616576001600360008773ffffffffffffffffffffffffffffffffffffffff1673ffffffffffffffffffffffffffffffffffffffff168152602001908152602001600020600082825401925050819055505b846002600086815260200190815260200160002060006101000a81548173ffffffffffffffffffffffffffffffffffffffff021916908373ffffffffffffffffffffffffffffffffffffffff160217905550838573ffffffffffffffffffffffffffffffffffffffff168273ffffffffffffffffffffffffffffffffffffffff167fddf252ad1be2c89b69c2b068fc378daa952ba7f163c4a11628f55a4df523b3ef60405160405180910390a4809150509392505050565b6116d6611315565b73ffffffffffffffffffffffffffffffffffffffff166116f4610aa5565b73ffffffffffffffffffffffffffffffffffffffff161461175357611717611315565b6040517f118cdaa700000000000000000000000000000000000000000000000000000000815260040161174a91906125d4565b60405180910390fd5b565b6000600760009054906101000a900473ffffffffffffffffffffffffffffffffffffffff16905081600760006101000a81548173ffffffffffffffffffffffffffffffffffffffff021916908373ffffffffffffffffffffffffffffffffffffffff1602179055508173ffffffffffffffffffffffffffffffffffffffff168173ffffffffffffffffffffffffffffffffffffffff167f8be0079c531659141344cd1fd0a4f28419497f9722a3daafe3b4186f6b6457e060405160405180910390a35050565b600073ffffffffffffffffffffffffffffffffffffffff168273ffffffffffffffffffffffffffffffffffffffff160361188c57816040517f5b08ba1800000000000000000000000000000000000000000000000000000000815260040161188391906125d4565b60405180910390fd5b80600560008573ffffffffffffffffffffffffffffffffffffffff1673ffffffffffffffffffffffffffffffffffffffff16815260200190815260200160002060008473ffffffffffffffffffffffffffffffffffffffff1673ffffffffffffffffffffffffffffffffffffffff16815260200190815260200160002060006101000a81548160ff0219169083151502179055508173ffffffffffffffffffffffffffffffffffffffff168373ffffffffffffffffffffffffffffffffffffffff167f17307eab39ab6107e8899845ad3d59bd9653f200f220920489ca2b5937696c318360405161197d9190612463565b60405180910390a3505050565b61199261238d565b6040518060600160405280600a8152602001601e81526020016064815250905090565b60008373ffffffffffffffffffffffffffffffffffffffff163b1115611b66578273ffffffffffffffffffffffffffffffffffffffff1663150b7a026119f9611315565b8685856040518563ffffffff1660e01b8152600401611a1b94939291906130a1565b6020604051808303816000875af1925050508015611a5757506040513d601f19601f82011682018060405250810190611a549190613102565b60015b611adb573d8060008114611a87576040519150601f19603f3d011682016040523d82523d6000602084013e611a8c565b606091505b506000815103611ad357836040517f64a0ae92000000000000000000000000000000000000000000000000000000008152600401611aca91906125d4565b60405180910390fd5b805181602001fd5b63150b7a0260e01b7bffffffffffffffffffffffffffffffffffffffffffffffffffffffff1916817bffffffffffffffffffffffffffffffffffffffffffffffffffffffff191614611b6457836040517f64a0ae92000000000000000000000000000000000000000000000000000000008152600401611b5b91906125d4565b60405180910390fd5b505b50505050565b606060405180602001604052806000815250905090565b6060611b8e82611250565b506000611b99611b6c565b90506000815111611bb95760405180602001604052806000815250611be4565b80611bc384611f96565b604051602001611bd4929190612f9f565b6040516020818303038152906040525b915050919050565b60007f01ffc9a7000000000000000000000000000000000000000000000000000000007bffffffffffffffffffffffffffffffffffffffffffffffffffffffff1916827bffffffffffffffffffffffffffffffffffffffffffffffffffffffff1916149050919050565b60006002600083815260200190815260200160002060009054906101000a900473ffffffffffffffffffffffffffffffffffffffff169050919050565b8080611ccc5750600073ffffffffffffffffffffffffffffffffffffffff168273ffffffffffffffffffffffffffffffffffffffff1614155b15611e00576000611cdc84611250565b9050600073ffffffffffffffffffffffffffffffffffffffff168373ffffffffffffffffffffffffffffffffffffffff1614158015611d4757508273ffffffffffffffffffffffffffffffffffffffff168173ffffffffffffffffffffffffffffffffffffffff1614155b8015611d5a5750611d588184610f7b565b155b15611d9c57826040517fa9fbf51f000000000000000000000000000000000000000000000000000000008152600401611d9391906125d4565b60405180910390fd5b8115611dfe57838573ffffffffffffffffffffffffffffffffffffffff168273ffffffffffffffffffffffffffffffffffffffff167f8c5be1e5ebec7d5bd14f71427d1e84f3dd0314c0f7b2291e5b200ac8c7c3b92560405160405180910390a45b505b836004600085815260200190815260200160002060006101000a81548173ffffffffffffffffffffffffffffffffffffffff021916908373ffffffffffffffffffffffffffffffffffffffff16021790555050505050565b611e72828260405180602001604052806000815250612064565b5050565b80600660008481526020019081526020016000209081611e9691906132db565b507ff8e1a15aba9398e019f0b49df1a4fde98ee17ae345cb5f6b5e2c27f5033e8ce782604051611ec69190612861565b60405180910390a15050565b611edd838383612080565b611f9157600073ffffffffffffffffffffffffffffffffffffffff168373ffffffffffffffffffffffffffffffffffffffff1603611f5257806040517f7e273289000000000000000000000000000000000000000000000000000000008152600401611f499190612861565b60405180910390fd5b81816040517f177e802f000000000000000000000000000000000000000000000000000000008152600401611f889291906133ad565b60405180910390fd5b505050565b606060006001611fa584612141565b01905060008167ffffffffffffffff811115611fc457611fc3612660565b5b6040519080825280601f01601f191660200182016040528015611ff65781602001600182028036833780820191505090505b509050600082602001820190505b600115612059578080600190039150507f3031323334353637383961626364656600000000000000000000000000000000600a86061a8153600a858161204d5761204c612fc3565b5b04945060008503612004575b819350505050919050565b61206e8383612294565b61207b60008484846119b5565b505050565b60008073ffffffffffffffffffffffffffffffffffffffff168373ffffffffffffffffffffffffffffffffffffffff161415801561213857508273ffffffffffffffffffffffffffffffffffffffff168473ffffffffffffffffffffffffffffffffffffffff1614806120f957506120f88484610f7b565b5b8061213757508273ffffffffffffffffffffffffffffffffffffffff1661211f836112d8565b73ffffffffffffffffffffffffffffffffffffffff16145b5b90509392505050565b600080600090507a184f03e93ff9f4daa797ed6e38ed64bf6a1f010000000000000000831061219f577a184f03e93ff9f4daa797ed6e38ed64bf6a1f010000000000000000838161219557612194612fc3565b5b0492506040810190505b6d04ee2d6d415b85acef810000000083106121dc576d04ee2d6d415b85acef810000000083816121d2576121d1612fc3565b5b0492506020810190505b662386f26fc10000831061220b57662386f26fc10000838161220157612200612fc3565b5b0492506010810190505b6305f5e1008310612234576305f5e100838161222a57612229612fc3565b5b0492506008810190505b612710831061225957612710838161224f5761224e612fc3565b5b0492506004810190505b6064831061227c576064838161227257612271612fc3565b5b0492506002810190505b600a831061228b576001810190505b80915050919050565b600073ffffffffffffffffffffffffffffffffffffffff168273ffffffffffffffffffffffffffffffffffffffff16036123065760006040517f64a0ae920000000000000000000000000000000000000000000000000000000081526004016122fd91906125d4565b60405180910390fd5b6000612314838360006114b4565b9050600073ffffffffffffffffffffffffffffffffffffffff168173ffffffffffffffffffffffffffffffffffffffff16146123885760006040517f73c6ac6e00000000000000000000000000000000000000000000000000000000815260040161237f91906125d4565b60405180910390fd5b505050565b6040518060600160405280600390602082028036833780820191505090505090565b6000604051905090565b600080fd5b600080fd5b60007fffffffff0000000000000000000000000000000000000000000000000000000082169050919050565b6123f8816123c3565b811461240357600080fd5b50565b600081359050612415816123ef565b92915050565b600060208284031215612431576124306123b9565b5b600061243f84828501612406565b91505092915050565b60008115159050919050565b61245d81612448565b82525050565b60006020820190506124786000830184612454565b92915050565b600081519050919050565b600082825260208201905092915050565b60005b838110156124b857808201518184015260208101905061249d565b60008484015250505050565b6000601f19601f8301169050919050565b60006124e08261247e565b6124ea8185612489565b93506124fa81856020860161249a565b612503816124c4565b840191505092915050565b6000602082019050818103600083015261252881846124d5565b905092915050565b6000819050919050565b61254381612530565b811461254e57600080fd5b50565b6000813590506125608161253a565b92915050565b60006020828403121561257c5761257b6123b9565b5b600061258a84828501612551565b91505092915050565b600073ffffffffffffffffffffffffffffffffffffffff82169050919050565b60006125be82612593565b9050919050565b6125ce816125b3565b82525050565b60006020820190506125e960008301846125c5565b92915050565b6125f8816125b3565b811461260357600080fd5b50565b600081359050612615816125ef565b92915050565b60008060408385031215612632576126316123b9565b5b600061264085828601612606565b925050602061265185828601612551565b9150509250929050565b600080fd5b7f4e487b7100000000000000000000000000000000000000000000000000000000600052604160045260246000fd5b612698826124c4565b810181811067ffffffffffffffff821117156126b7576126b6612660565b5b80604052505050565b60006126ca6123af565b90506126d6828261268f565b919050565b600067ffffffffffffffff8211156126f6576126f5612660565b5b602082029050602081019050919050565b600080fd5b600061271f61271a846126db565b6126c0565b9050808382526020820190506020840283018581111561274257612741612707565b5b835b8181101561276b57806127578882612551565b845260208401935050602081019050612744565b5050509392505050565b600082601f83011261278a5761278961265b565b5b813561279a84826020860161270c565b91505092915050565b600080604083850312156127ba576127b96123b9565b5b60006127c885828601612551565b925050602083013567ffffffffffffffff8111156127e9576127e86123be565b5b6127f585828601612775565b9150509250929050565b600080600060608486031215612818576128176123b9565b5b600061282686828701612606565b935050602061283786828701612606565b925050604061284886828701612551565b9150509250925092565b61285b81612530565b82525050565b60006020820190506128766000830184612852565b92915050565b600060208284031215612892576128916123b9565b5b60006128a084828501612606565b91505092915050565b6128b281612448565b81146128bd57600080fd5b50565b6000813590506128cf816128a9565b92915050565b600080604083850312156128ec576128eb6123b9565b5b60006128fa85828601612606565b925050602061290b858286016128c0565b9150509250929050565b7f4e487b7100000000000000000000000000000000000000000000000000000000600052602160045260246000fd5b6003811061295557612954612915565b5b50565b600081905061296682612944565b919050565b600061297682612958565b9050919050565b6129868161296b565b82525050565b60006020820190506129a1600083018461297d565b92915050565b600080fd5b600067ffffffffffffffff8211156129c7576129c6612660565b5b6129d0826124c4565b9050602081019050919050565b82818337600083830152505050565b60006129ff6129fa846129ac565b6126c0565b905082815260208101848484011115612a1b57612a1a6129a7565b5b612a268482856129dd565b509392505050565b600082601f830112612a4357612a4261265b565b5b8135612a538482602086016129ec565b91505092915050565b60008060008060808587031215612a7657612a756123b9565b5b6000612a8487828801612606565b9450506020612a9587828801612606565b9350506040612aa687828801612551565b925050606085013567ffffffffffffffff811115612ac757612ac66123be565b5b612ad387828801612a2e565b91505092959194509250565b60008060408385031215612af657612af56123b9565b5b6000612b0485828601612606565b9250506020612b1585828601612606565b9150509250929050565b600081519050919050565b600082825260208201905092915050565b6000819050602082019050919050565b600082825260208201905092915050565b6000612b678261247e565b612b718185612b4b565b9350612b8181856020860161249a565b612b8a816124c4565b840191505092915050565b6000612ba18383612b5c565b905092915050565b6000602082019050919050565b6000612bc182612b1f565b612bcb8185612b2a565b935083602082028501612bdd85612b3b565b8060005b85811015612c195784840389528151612bfa8582612b95565b9450612c0583612ba9565b925060208a01995050600181019050612be1565b50829750879550505050505092915050565b60006020820190508181036000830152612c458184612bb6565b905092915050565b7f4e487b7100000000000000000000000000000000000000000000000000000000600052602260045260246000fd5b60006002820490506001821680612c9457607f821691505b602082108103612ca757612ca6612c4d565b5b50919050565b6000604082019050612cc260008301856125c5565b612ccf60208301846125c5565b9392505050565b6000606082019050612ceb60008301866125c5565b612cf86020830185612852565b612d0560408301846125c5565b949350505050565b600081905092915050565b50565b6000612d28600083612d0d565b9150612d3382612d18565b600082019050919050565b6000612d4982612d1b565b9150819050919050565b7f4e487b7100000000000000000000000000000000000000000000000000000000600052603260045260246000fd5b7f4e487b7100000000000000000000000000000000000000000000000000000000600052601160045260246000fd5b6000612dbc82612530565b9150612dc783612530565b9250828201905080821115612ddf57612dde612d82565b5b92915050565b6000612df082612530565b91507fffffffffffffffffffffffffffffffffffffffffffffffffffffffffffffffff8203612e2257612e21612d82565b5b600182019050919050565b6000819050919050565b612e4081612e2d565b82525050565b600067ffffffffffffffff82169050919050565b612e6381612e46565b82525050565b600061ffff82169050919050565b612e8081612e69565b82525050565b600063ffffffff82169050919050565b612e9f81612e86565b82525050565b600060a082019050612eba6000830188612e37565b612ec76020830187612e5a565b612ed46040830186612e77565b612ee16060830185612e96565b612eee6080830184612e96565b9695505050505050565b600081519050612f078161253a565b92915050565b600060208284031215612f2357612f226123b9565b5b6000612f3184828501612ef8565b91505092915050565b6000604082019050612f4f6000830185612852565b612f5c60208301846125c5565b9392505050565b600081905092915050565b6000612f798261247e565b612f838185612f63565b9350612f9381856020860161249a565b80840191505092915050565b6000612fab8285612f6e565b9150612fb78284612f6e565b91508190509392505050565b7f4e487b7100000000000000000000000000000000000000000000000000000000600052601260045260246000fd5b6000612ffd82612530565b915061300883612530565b92508261301857613017612fc3565b5b828206905092915050565b6000604082019050613038600083018561297d565b61304560208301846125c5565b9392505050565b600081519050919050565b600082825260208201905092915050565b60006130738261304c565b61307d8185613057565b935061308d81856020860161249a565b613096816124c4565b840191505092915050565b60006080820190506130b660008301876125c5565b6130c360208301866125c5565b6130d06040830185612852565b81810360608301526130e28184613068565b905095945050505050565b6000815190506130fc816123ef565b92915050565b600060208284031215613118576131176123b9565b5b6000613126848285016130ed565b91505092915050565b60008190508160005260206000209050919050565b60006020601f8301049050919050565b600082821b905092915050565b6000600883026131917fffffffffffffffffffffffffffffffffffffffffffffffffffffffffffffffff82613154565b61319b8683613154565b95508019841693508086168417925050509392505050565b6000819050919050565b60006131d86131d36131ce84612530565b6131b3565b612530565b9050919050565b6000819050919050565b6131f2836131bd565b6132066131fe826131df565b848454613161565b825550505050565b600090565b61321b61320e565b6132268184846131e9565b505050565b5b8181101561324a5761323f600082613213565b60018101905061322c565b5050565b601f82111561328f576132608161312f565b61326984613144565b81016020851015613278578190505b61328c61328485613144565b83018261322b565b50505b505050565b600082821c905092915050565b60006132b260001984600802613294565b1980831691505092915050565b60006132cb83836132a1565b9150826002028217905092915050565b6132e48261247e565b67ffffffffffffffff8111156132fd576132fc612660565b5b6133078254612c7c565b61331282828561324e565b600060209050601f8311600181146133455760008415613333578287015190505b61333d85826132bf565b8655506133a5565b601f1984166133538661312f565b60005b8281101561337b57848901518255600182019150602085019450602081019050613356565b868310156133985784890151613394601f8916826132a1565b8355505b6001600288020188555050505b505050505050565b60006040820190506133c260008301856125c5565b6133cf6020830184612852565b939250505056fea26469706673582212201debe2f379a77b102de61f0b695cfaf3341ecd938bff8384d78b8dd32d57b53164736f6c63430008140033",
  "devdoc": {
    "errors": {
      "ERC721IncorrectOwner(address,uint256,address)": [
        {
          "details": "Indicates an error related to the ownership over a particular token. Used in transfers.",
          "params": {
            "owner": "Address of the current owner of a token.",
            "sender": "Address whose tokens are being transferred.",
            "tokenId": "Identifier number of a token."
          }
        }
      ],
      "ERC721InsufficientApproval(address,uint256)": [
        {
          "details": "Indicates a failure with the `operator`s approval. Used in transfers.",
          "params": {
            "operator": "Address that may be allowed to operate on tokens without being their owner.",
            "tokenId": "Identifier number of a token."
          }
        }
      ],
      "ERC721InvalidApprover(address)": [
        {
          "details": "Indicates a failure with the `approver` of a token to be approved. Used in approvals.",
          "params": {
            "approver": "Address initiating an approval operation."
          }
        }
      ],
      "ERC721InvalidOperator(address)": [
        {
          "details": "Indicates a failure with the `operator` to be approved. Used in approvals.",
          "params": {
            "operator": "Address that may be allowed to operate on tokens without being their owner."
          }
        }
      ],
      "ERC721InvalidOwner(address)": [
        {
          "details": "Indicates that an address can't be an owner. For example, `address(0)` is a forbidden owner in EIP-20. Used in balance queries.",
          "params": {
            "owner": "Address of the current owner of a token."
          }
        }
      ],
      "ERC721InvalidReceiver(address)": [
        {
          "details": "Indicates a failure with the token `receiver`. Used in transfers.",
          "params": {
            "receiver": "Address to which tokens are being transferred."
          }
        }
      ],
      "ERC721InvalidSender(address)": [
        {
          "details": "Indicates a failure with the token `sender`. Used in transfers.",
          "params": {
            "sender": "Address whose tokens are being transferred."
          }
        }
      ],
      "ERC721NonexistentToken(uint256)": [
        {
          "details": "Indicates a `tokenId` whose `owner` is the zero address.",
          "params": {
            "tokenId": "Identifier number of a token."
          }
        }
      ],
      "OwnableInvalidOwner(address)": [
        {
          "details": "The owner is not a valid owner account. (eg. `address(0)`)"
        }
      ],
      "OwnableUnauthorizedAccount(address)": [
        {
          "details": "The caller account is not authorized to perform an operation."
        }
      ]
    },
    "events": {
      "Approval(address,address,uint256)": {
        "details": "Emitted when `owner` enables `approved` to manage the `tokenId` token."
      },
      "ApprovalForAll(address,address,bool)": {
        "details": "Emitted when `owner` enables or disables (`approved`) `operator` to manage all of its assets."
      },
      "BatchMetadataUpdate(uint256,uint256)": {
        "details": "This event emits when the metadata of a range of tokens is changed. So that the third-party platforms such as NFT market could timely update the images and related attributes of the NFTs."
      },
      "MetadataUpdate(uint256)": {
        "details": "This event emits when the metadata of a token is changed. So that the third-party platforms such as NFT market could timely update the images and related attributes of the NFT."
      },
      "Transfer(address,address,uint256)": {
        "details": "Emitted when `tokenId` token is transferred from `from` to `to`."
      }
    },
    "kind": "dev",
    "methods": {
      "approve(address,uint256)": {
        "details": "See {IERC721-approve}."
      },
      "balanceOf(address)": {
        "details": "See {IERC721-balanceOf}."
      },
      "getApproved(uint256)": {
        "details": "See {IERC721-getApproved}."
      },
      "isApprovedForAll(address,address)": {
        "details": "See {IERC721-isApprovedForAll}."
      },
      "name()": {
        "details": "See {IERC721Metadata-name}."
      },
      "owner()": {
        "details": "Returns the address of the current owner."
      },
      "ownerOf(uint256)": {
        "details": "See {IERC721-ownerOf}."
      },
      "renounceOwnership()": {
        "details": "Leaves the contract without owner. It will not be possible to call `onlyOwner` functions. Can only be called by the current owner. NOTE: Renouncing ownership will leave the contract without an owner, thereby disabling any functionality that is only available to the owner."
      },
      "safeTransferFrom(address,address,uint256)": {
        "details": "See {IERC721-safeTransferFrom}."
      },
      "safeTransferFrom(address,address,uint256,bytes)": {
        "details": "See {IERC721-safeTransferFrom}."
      },
      "setApprovalForAll(address,bool)": {
        "details": "See {IERC721-setApprovalForAll}."
      },
      "supportsInterface(bytes4)": {
        "details": "See {IERC165-supportsInterface}"
      },
      "symbol()": {
        "details": "See {IERC721Metadata-symbol}."
      },
      "tokenURI(uint256)": {
        "details": "See {IERC721Metadata-tokenURI}."
      },
      "transferFrom(address,address,uint256)": {
        "details": "See {IERC721-transferFrom}."
      },
      "transferOwnership(address)": {
        "details": "Transfers ownership of the contract to a new account (`newOwner`). Can only be called by the current owner."
      }
    },
    "version": 1
  },
  "userdoc": {
    "kind": "user",
    "methods": {},
    "version": 1
  },
  "storageLayout": {
    "storage": [
      {
        "astId": 503,
        "contract": "contracts/RandomIpfsNft.sol:RandomIpfsNft",
        "label": "_name",
        "offset": 0,
        "slot": "0",
        "type": "t_string_storage"
      },
      {
        "astId": 505,
        "contract": "contracts/RandomIpfsNft.sol:RandomIpfsNft",
        "label": "_symbol",
        "offset": 0,
        "slot": "1",
        "type": "t_string_storage"
      },
      {
        "astId": 509,
        "contract": "contracts/RandomIpfsNft.sol:RandomIpfsNft",
        "label": "_owners",
        "offset": 0,
        "slot": "2",
        "type": "t_mapping(t_uint256,t_address)"
      },
      {
        "astId": 513,
        "contract": "contracts/RandomIpfsNft.sol:RandomIpfsNft",
        "label": "_balances",
        "offset": 0,
        "slot": "3",
        "type": "t_mapping(t_address,t_uint256)"
      },
      {
        "astId": 517,
        "contract": "contracts/RandomIpfsNft.sol:RandomIpfsNft",
        "label": "_tokenApprovals",
        "offset": 0,
        "slot": "4",
        "type": "t_mapping(t_uint256,t_address)"
      },
      {
        "astId": 523,
        "contract": "contracts/RandomIpfsNft.sol:RandomIpfsNft",
        "label": "_operatorApprovals",
        "offset": 0,
        "slot": "5",
        "type": "t_mapping(t_address,t_mapping(t_address,t_bool))"
      },
      {
        "astId": 1642,
        "contract": "contracts/RandomIpfsNft.sol:RandomIpfsNft",
        "label": "_tokenURIs",
        "offset": 0,
        "slot": "6",
        "type": "t_mapping(t_uint256,t_string_storage)"
      },
      {
        "astId": 162,
        "contract": "contracts/RandomIpfsNft.sol:RandomIpfsNft",
        "label": "_owner",
        "offset": 0,
        "slot": "7",
        "type": "t_address"
      },
      {
        "astId": 3289,
        "contract": "contracts/RandomIpfsNft.sol:RandomIpfsNft",
        "label": "s_dogTokenUris",
        "offset": 0,
        "slot": "8",
        "type": "t_array(t_string_storage)dyn_storage"
      },
      {
        "astId": 3291,
        "contract": "contracts/RandomIpfsNft.sol:RandomIpfsNft",
        "label": "s_tokenCounter",
        "offset": 0,
        "slot": "9",
        "type": "t_uint256"
      },
      {
        "astId": 3295,
        "contract": "contracts/RandomIpfsNft.sol:RandomIpfsNft",
        "label": "s_requestToSender",
        "offset": 0,
        "slot": "10",
        "type": "t_mapping(t_uint256,t_address)"
      }
    ],
    "types": {
      "t_address": {
        "encoding": "inplace",
        "label": "address",
        "numberOfBytes": "20"
      },
      "t_array(t_string_storage)dyn_storage": {
        "base": "t_string_storage",
        "encoding": "dynamic_array",
        "label": "string[]",
        "numberOfBytes": "32"
      },
      "t_bool": {
        "encoding": "inplace",
        "label": "bool",
        "numberOfBytes": "1"
      },
      "t_mapping(t_address,t_bool)": {
        "encoding": "mapping",
        "key": "t_address",
        "label": "mapping(address => bool)",
        "numberOfBytes": "32",
        "value": "t_bool"
      },
      "t_mapping(t_address,t_mapping(t_address,t_bool))": {
        "encoding": "mapping",
        "key": "t_address",
        "label": "mapping(address => mapping(address => bool))",
        "numberOfBytes": "32",
        "value": "t_mapping(t_address,t_bool)"
      },
      "t_mapping(t_address,t_uint256)": {
        "encoding": "mapping",
        "key": "t_address",
        "label": "mapping(address => uint256)",
        "numberOfBytes": "32",
        "value": "t_uint256"
      },
      "t_mapping(t_uint256,t_address)": {
        "encoding": "mapping",
        "key": "t_uint256",
        "label": "mapping(uint256 => address)",
        "numberOfBytes": "32",
        "value": "t_address"
      },
      "t_mapping(t_uint256,t_string_storage)": {
        "encoding": "mapping",
        "key": "t_uint256",
        "label": "mapping(uint256 => string)",
        "numberOfBytes": "32",
        "value": "t_string_storage"
      },
      "t_string_storage": {
        "encoding": "bytes",
        "label": "string",
        "numberOfBytes": "32"
      },
      "t_uint256": {
        "encoding": "inplace",
        "label": "uint256",
        "numberOfBytes": "32"
      }
    }
  }
}