{
  "_format": "hh-sol-artifact-1",
  "contractName": "RandomIpfsNft",
  "sourceName": "contracts/RandomIpfsNft.sol",
  "abi": [
    {
      "inputs": [
        {
          "internalType": "address",
          "name": "vrfCoordinatorV2",
          "type": "address"
        },
        {
          "internalType": "uint64",
          "name": "subscriptionId",
          "type": "uint64"
        },
        {
          "internalType": "bytes32",
          "name": "keyHash",
          "type": "bytes32"
        },
        {
          "internalType": "uint32",
          "name": "gasLimit",
          "type": "uint32"
        },
        {
          "internalType": "string[3]",
          "name": "tokenUris",
          "type": "string[3]"
        },
        {
          "internalType": "uint256",
          "name": "mintFee",
          "type": "uint256"
        }
      ],
      "stateMutability": "nonpayable",
      "type": "constructor"
    },
    {
      "inputs": [
        {
          "internalType": "address",
          "name": "sender",
          "type": "address"
        },
        {
          "internalType": "uint256",
          "name": "tokenId",
          "type": "uint256"
        },
        {
          "internalType": "address",
          "name": "owner",
          "type": "address"
        }
      ],
      "name": "ERC721IncorrectOwner",
      "type": "error"
    },
    {
      "inputs": [
        {
          "internalType": "address",
          "name": "operator",
          "type": "address"
        },
        {
          "internalType": "uint256",
          "name": "tokenId",
          "type": "uint256"
        }
      ],
      "name": "ERC721InsufficientApproval",
      "type": "error"
    },
    {
      "inputs": [
        {
          "internalType": "address",
          "name": "approver",
          "type": "address"
        }
      ],
      "name": "ERC721InvalidApprover",
      "type": "error"
    },
    {
      "inputs": [
        {
          "internalType": "address",
          "name": "operator",
          "type": "address"
        }
      ],
      "name": "ERC721InvalidOperator",
      "type": "error"
    },
    {
      "inputs": [
        {
          "internalType": "address",
          "name": "owner",
          "type": "address"
        }
      ],
      "name": "ERC721InvalidOwner",
      "type": "error"
    },
    {
      "inputs": [
        {
          "internalType": "address",
          "name": "receiver",
          "type": "address"
        }
      ],
      "name": "ERC721InvalidReceiver",
      "type": "error"
    },
    {
      "inputs": [
        {
          "internalType": "address",
          "name": "sender",
          "type": "address"
        }
      ],
      "name": "ERC721InvalidSender",
      "type": "error"
    },
    {
      "inputs": [
        {
          "internalType": "uint256",
          "name": "tokenId",
          "type": "uint256"
        }
      ],
      "name": "ERC721NonexistentToken",
      "type": "error"
    },
    {
      "inputs": [
        {
          "internalType": "address",
          "name": "have",
          "type": "address"
        },
        {
          "internalType": "address",
          "name": "want",
          "type": "address"
        }
      ],
      "name": "OnlyCoordinatorCanFulfill",
      "type": "error"
    },
    {
      "inputs": [
        {
          "internalType": "address",
          "name": "owner",
          "type": "address"
        }
      ],
      "name": "OwnableInvalidOwner",
      "type": "error"
    },
    {
      "inputs": [
        {
          "internalType": "address",
          "name": "account",
          "type": "address"
        }
      ],
      "name": "OwnableUnauthorizedAccount",
      "type": "error"
    },
    {
      "inputs": [],
      "name": "RandomIpfsNft_RangeOutOfBounds",
      "type": "error"
    },
    {
      "inputs": [],
      "name": "RequestIpfsNft_InsufficientMintFee",
      "type": "error"
    },
    {
      "inputs": [],
      "name": "RequestIpfsNft_TransferFailed",
      "type": "error"
    },
    {
      "anonymous": false,
      "inputs": [
        {
          "indexed": true,
          "internalType": "address",
          "name": "owner",
          "type": "address"
        },
        {
          "indexed": true,
          "internalType": "address",
          "name": "approved",
          "type": "address"
        },
        {
          "indexed": true,
          "internalType": "uint256",
          "name": "tokenId",
          "type": "uint256"
        }
      ],
      "name": "Approval",
      "type": "event"
    },
    {
      "anonymous": false,
      "inputs": [
        {
          "indexed": true,
          "internalType": "address",
          "name": "owner",
          "type": "address"
        },
        {
          "indexed": true,
          "internalType": "address",
          "name": "operator",
          "type": "address"
        },
        {
          "indexed": false,
          "internalType": "bool",
          "name": "approved",
          "type": "bool"
        }
      ],
      "name": "ApprovalForAll",
      "type": "event"
    },
    {
      "anonymous": false,
      "inputs": [
        {
          "indexed": false,
          "internalType": "uint256",
          "name": "_fromTokenId",
          "type": "uint256"
        },
        {
          "indexed": false,
          "internalType": "uint256",
          "name": "_toTokenId",
          "type": "uint256"
        }
      ],
      "name": "BatchMetadataUpdate",
      "type": "event"
    },
    {
      "anonymous": false,
      "inputs": [
        {
          "indexed": false,
          "internalType": "uint256",
          "name": "_tokenId",
          "type": "uint256"
        }
      ],
      "name": "MetadataUpdate",
      "type": "event"
    },
    {
      "anonymous": false,
      "inputs": [
        {
          "indexed": false,
          "internalType": "enum RandomIpfsNft.Breed",
          "name": "dogBreed",
          "type": "uint8"
        },
        {
          "indexed": false,
          "internalType": "address",
          "name": "minter",
          "type": "address"
        }
      ],
      "name": "NftMinted",
      "type": "event"
    },
    {
      "anonymous": false,
      "inputs": [
        {
          "indexed": false,
          "internalType": "uint256",
          "name": "",
          "type": "uint256"
        },
        {
          "indexed": false,
          "internalType": "address",
          "name": "",
          "type": "address"
        }
      ],
      "name": "NftRequested",
      "type": "event"
    },
    {
      "anonymous": false,
      "inputs": [
        {
          "indexed": true,
          "internalType": "address",
          "name": "previousOwner",
          "type": "address"
        },
        {
          "indexed": true,
          "internalType": "address",
          "name": "newOwner",
          "type": "address"
        }
      ],
      "name": "OwnershipTransferred",
      "type": "event"
    },
    {
      "anonymous": false,
      "inputs": [
        {
          "indexed": true,
          "internalType": "address",
          "name": "from",
          "type": "address"
        },
        {
          "indexed": true,
          "internalType": "address",
          "name": "to",
          "type": "address"
        },
        {
          "indexed": true,
          "internalType": "uint256",
          "name": "tokenId",
          "type": "uint256"
        }
      ],
      "name": "Transfer",
      "type": "event"
    },
    {
      "inputs": [
        {
          "internalType": "address",
          "name": "to",
          "type": "address"
        },
        {
          "internalType": "uint256",
          "name": "tokenId",
          "type": "uint256"
        }
      ],
      "name": "approve",
      "outputs": [],
      "stateMutability": "nonpayable",
      "type": "function"
    },
    {
      "inputs": [
        {
          "internalType": "address",
          "name": "owner",
          "type": "address"
        }
      ],
      "name": "balanceOf",
      "outputs": [
        {
          "internalType": "uint256",
          "name": "",
          "type": "uint256"
        }
      ],
      "stateMutability": "view",
      "type": "function"
    },
    {
      "inputs": [
        {
          "internalType": "uint256",
          "name": "tokenId",
          "type": "uint256"
        }
      ],
      "name": "getApproved",
      "outputs": [
        {
          "internalType": "address",
          "name": "",
          "type": "address"
        }
      ],
      "stateMutability": "view",
      "type": "function"
    },
    {
      "inputs": [
        {
          "internalType": "uint256",
          "name": "moddedRng",
          "type": "uint256"
        }
      ],
      "name": "getBreedFromModdedRng",
      "outputs": [
        {
          "internalType": "enum RandomIpfsNft.Breed",
          "name": "",
          "type": "uint8"
        }
      ],
      "stateMutability": "pure",
      "type": "function"
    },
    {
      "inputs": [],
      "name": "getMintFee",
      "outputs": [
        {
          "internalType": "uint256",
          "name": "",
          "type": "uint256"
        }
      ],
      "stateMutability": "view",
      "type": "function"
    },
    {
      "inputs": [],
      "name": "getTokenCounter",
      "outputs": [
        {
          "internalType": "uint256",
          "name": "",
          "type": "uint256"
        }
      ],
      "stateMutability": "view",
      "type": "function"
    },
    {
      "inputs": [],
      "name": "getTokenUris",
      "outputs": [
        {
          "internalType": "string[]",
          "name": "",
          "type": "string[]"
        }
      ],
      "stateMutability": "view",
      "type": "function"
    },
    {
      "inputs": [
        {
          "internalType": "address",
          "name": "owner",
          "type": "address"
        },
        {
          "internalType": "address",
          "name": "operator",
          "type": "address"
        }
      ],
      "name": "isApprovedForAll",
      "outputs": [
        {
          "internalType": "bool",
          "name": "",
          "type": "bool"
        }
      ],
      "stateMutability": "view",
      "type": "function"
    },
    {
      "inputs": [],
      "name": "name",
      "outputs": [
        {
          "internalType": "string",
          "name": "",
          "type": "string"
        }
      ],
      "stateMutability": "view",
      "type": "function"
    },
    {
      "inputs": [],
      "name": "owner",
      "outputs": [
        {
          "internalType": "address",
          "name": "",
          "type": "address"
        }
      ],
      "stateMutability": "view",
      "type": "function"
    },
    {
      "inputs": [
        {
          "internalType": "uint256",
          "name": "tokenId",
          "type": "uint256"
        }
      ],
      "name": "ownerOf",
      "outputs": [
        {
          "internalType": "address",
          "name": "",
          "type": "address"
        }
      ],
      "stateMutability": "view",
      "type": "function"
    },
    {
      "inputs": [
        {
          "internalType": "uint256",
          "name": "requestId",
          "type": "uint256"
        },
        {
          "internalType": "uint256[]",
          "name": "randomWords",
          "type": "uint256[]"
        }
      ],
      "name": "rawFulfillRandomWords",
      "outputs": [],
      "stateMutability": "nonpayable",
      "type": "function"
    },
    {
      "inputs": [],
      "name": "renounceOwnership",
      "outputs": [],
      "stateMutability": "nonpayable",
      "type": "function"
    },
    {
      "inputs": [],
      "name": "requestNft",
      "outputs": [
        {
          "internalType": "uint256",
          "name": "requestId",
          "type": "uint256"
        }
      ],
      "stateMutability": "payable",
      "type": "function"
    },
    {
      "inputs": [
        {
          "internalType": "uint256",
          "name": "",
          "type": "uint256"
        }
      ],
      "name": "s_requestToSender",
      "outputs": [
        {
          "internalType": "address",
          "name": "",
          "type": "address"
        }
      ],
      "stateMutability": "view",
      "type": "function"
    },
    {
      "inputs": [
        {
          "internalType": "address",
          "name": "from",
          "type": "address"
        },
        {
          "internalType": "address",
          "name": "to",
          "type": "address"
        },
        {
          "internalType": "uint256",
          "name": "tokenId",
          "type": "uint256"
        }
      ],
      "name": "safeTransferFrom",
      "outputs": [],
      "stateMutability": "nonpayable",
      "type": "function"
    },
    {
      "inputs": [
        {
          "internalType": "address",
          "name": "from",
          "type": "address"
        },
        {
          "internalType": "address",
          "name": "to",
          "type": "address"
        },
        {
          "internalType": "uint256",
          "name": "tokenId",
          "type": "uint256"
        },
        {
          "internalType": "bytes",
          "name": "data",
          "type": "bytes"
        }
      ],
      "name": "safeTransferFrom",
      "outputs": [],
      "stateMutability": "nonpayable",
      "type": "function"
    },
    {
      "inputs": [
        {
          "internalType": "address",
          "name": "operator",
          "type": "address"
        },
        {
          "internalType": "bool",
          "name": "approved",
          "type": "bool"
        }
      ],
      "name": "setApprovalForAll",
      "outputs": [],
      "stateMutability": "nonpayable",
      "type": "function"
    },
    {
      "inputs": [
        {
          "internalType": "bytes4",
          "name": "interfaceId",
          "type": "bytes4"
        }
      ],
      "name": "supportsInterface",
      "outputs": [
        {
          "internalType": "bool",
          "name": "",
          "type": "bool"
        }
      ],
      "stateMutability": "view",
      "type": "function"
    },
    {
      "inputs": [],
      "name": "symbol",
      "outputs": [
        {
          "internalType": "string",
          "name": "",
          "type": "string"
        }
      ],
      "stateMutability": "view",
      "type": "function"
    },
    {
      "inputs": [
        {
          "internalType": "uint256",
          "name": "tokenId",
          "type": "uint256"
        }
      ],
      "name": "tokenURI",
      "outputs": [
        {
          "internalType": "string",
          "name": "",
          "type": "string"
        }
      ],
      "stateMutability": "view",
      "type": "function"
    },
    {
      "inputs": [
        {
          "internalType": "address",
          "name": "from",
          "type": "address"
        },
        {
          "internalType": "address",
          "name": "to",
          "type": "address"
        },
        {
          "internalType": "uint256",
          "name": "tokenId",
          "type": "uint256"
        }
      ],
      "name": "transferFrom",
      "outputs": [],
      "stateMutability": "nonpayable",
      "type": "function"
    },
    {
      "inputs": [
        {
          "internalType": "address",
          "name": "newOwner",
          "type": "address"
        }
      ],
      "name": "transferOwnership",
      "outputs": [],
      "stateMutability": "nonpayable",
      "type": "function"
    },
    {
      "inputs": [],
      "name": "withdraw",
      "outputs": [],
      "stateMutability": "nonpayable",
      "type": "function"
    }
  ],
  "bytecode": "0x6101406040523480156200001257600080fd5b506040516200404d3803806200404d8339818101604052810190620000389190620007b7565b336040518060400160405280600f81526020017f52616e646f6d2049706673204e465400000000000000000000000000000000008152506040518060400160405280600381526020017f52494e0000000000000000000000000000000000000000000000000000000000815250888073ffffffffffffffffffffffffffffffffffffffff1660808173ffffffffffffffffffffffffffffffffffffffff1681525050508160009081620000ec919062000ab3565b508060019081620000fe919062000ab3565b505050600073ffffffffffffffffffffffffffffffffffffffff168173ffffffffffffffffffffffffffffffffffffffff1603620001765760006040517f1e4fbdf70000000000000000000000000000000000000000000000000000000081526004016200016d919062000bab565b60405180910390fd5b62000187816200022660201b60201c565b508573ffffffffffffffffffffffffffffffffffffffff1660a08173ffffffffffffffffffffffffffffffffffffffff16815250508467ffffffffffffffff1660c08167ffffffffffffffff16815250508360e081815250508263ffffffff166101008163ffffffff1681525050600060098190555081600890600362000210929190620002ec565b5080610120818152505050505050505062000bc8565b6000600760009054906101000a900473ffffffffffffffffffffffffffffffffffffffff16905081600760006101000a81548173ffffffffffffffffffffffffffffffffffffffff021916908373ffffffffffffffffffffffffffffffffffffffff1602179055508173ffffffffffffffffffffffffffffffffffffffff168173ffffffffffffffffffffffffffffffffffffffff167f8be0079c531659141344cd1fd0a4f28419497f9722a3daafe3b4186f6b6457e060405160405180910390a35050565b82805482825590600052602060002090810192821562000339579160200282015b828111156200033857825182908162000327919062000ab3565b50916020019190600101906200030d565b5b5090506200034891906200034c565b5090565b5b8082111562000370576000818162000366919062000374565b506001016200034d565b5090565b5080546200038290620008ac565b6000825580601f10620003965750620003b7565b601f016020900490600052602060002090810190620003b69190620003ba565b5b50565b5b80821115620003d5576000816000905550600101620003bb565b5090565b6000604051905090565b600080fd5b600080fd5b600073ffffffffffffffffffffffffffffffffffffffff82169050919050565b60006200041a82620003ed565b9050919050565b6200042c816200040d565b81146200043857600080fd5b50565b6000815190506200044c8162000421565b92915050565b600067ffffffffffffffff82169050919050565b620004718162000452565b81146200047d57600080fd5b50565b600081519050620004918162000466565b92915050565b6000819050919050565b620004ac8162000497565b8114620004b857600080fd5b50565b600081519050620004cc81620004a1565b92915050565b600063ffffffff82169050919050565b620004ed81620004d2565b8114620004f957600080fd5b50565b6000815190506200050d81620004e2565b92915050565b600080fd5b6000601f19601f8301169050919050565b7f4e487b7100000000000000000000000000000000000000000000000000000000600052604160045260246000fd5b620005638262000518565b810181811067ffffffffffffffff8211171562000585576200058462000529565b5b80604052505050565b60006200059a620003d9565b9050620005a8828262000558565b919050565b600067ffffffffffffffff821115620005cb57620005ca62000529565b5b602082029050919050565b600080fd5b600080fd5b600067ffffffffffffffff821115620005fe57620005fd62000529565b5b620006098262000518565b9050602081019050919050565b60005b838110156200063657808201518184015260208101905062000619565b60008484015250505050565b6000620006596200065384620005e0565b6200058e565b905082815260208101848484011115620006785762000677620005db565b5b6200068584828562000616565b509392505050565b600082601f830112620006a557620006a462000513565b5b8151620006b784826020860162000642565b91505092915050565b6000620006d7620006d184620005ad565b6200058e565b90508060208402830185811115620006f457620006f3620005d6565b5b835b818110156200074257805167ffffffffffffffff8111156200071d576200071c62000513565b5b8086016200072c89826200068d565b85526020850194505050602081019050620006f6565b5050509392505050565b600082601f83011262000764576200076362000513565b5b600362000773848285620006c0565b91505092915050565b6000819050919050565b62000791816200077c565b81146200079d57600080fd5b50565b600081519050620007b18162000786565b92915050565b60008060008060008060c08789031215620007d757620007d6620003e3565b5b6000620007e789828a016200043b565b9650506020620007fa89828a0162000480565b95505060406200080d89828a01620004bb565b94505060606200082089828a01620004fc565b935050608087015167ffffffffffffffff811115620008445762000843620003e8565b5b6200085289828a016200074c565b92505060a06200086589828a01620007a0565b9150509295509295509295565b600081519050919050565b7f4e487b7100000000000000000000000000000000000000000000000000000000600052602260045260246000fd5b60006002820490506001821680620008c557607f821691505b602082108103620008db57620008da6200087d565b5b50919050565b60008190508160005260206000209050919050565b60006020601f8301049050919050565b600082821b905092915050565b600060088302620009457fffffffffffffffffffffffffffffffffffffffffffffffffffffffffffffffff8262000906565b62000951868362000906565b95508019841693508086168417925050509392505050565b6000819050919050565b6000620009946200098e62000988846200077c565b62000969565b6200077c565b9050919050565b6000819050919050565b620009b08362000973565b620009c8620009bf826200099b565b84845462000913565b825550505050565b600090565b620009df620009d0565b620009ec818484620009a5565b505050565b5b8181101562000a145762000a08600082620009d5565b600181019050620009f2565b5050565b601f82111562000a635762000a2d81620008e1565b62000a3884620008f6565b8101602085101562000a48578190505b62000a6062000a5785620008f6565b830182620009f1565b50505b505050565b600082821c905092915050565b600062000a886000198460080262000a68565b1980831691505092915050565b600062000aa3838362000a75565b9150826002028217905092915050565b62000abe8262000872565b67ffffffffffffffff81111562000ada5762000ad962000529565b5b62000ae68254620008ac565b62000af382828562000a18565b600060209050601f83116001811462000b2b576000841562000b16578287015190505b62000b22858262000a95565b86555062000b92565b601f19841662000b3b86620008e1565b60005b8281101562000b655784890151825560018201915060208501945060208101905062000b3e565b8683101562000b85578489015162000b81601f89168262000a75565b8355505b6001600288020188555050505b505050505050565b62000ba5816200040d565b82525050565b600060208201905062000bc2600083018462000b9a565b92915050565b60805160a05160c05160e051610100516101205161342762000c2660003960008181610a810152610c5d01526000610d3701526000610cf301526000610d1401526000610cb70152600081816106cc015261072001526134276000f3fe60806040526004361061014b5760003560e01c8063715018a6116100b6578063aa1524911161006f578063aa15249114610490578063b88d4fde146104ae578063c87b56dd146104d7578063e985e9c514610514578063eb612dfb14610551578063f2fde38b1461057c5761014b565b8063715018a6146103925780637a5caab3146103a95780638da5cb5b146103d457806395d89b41146103ff578063a22cb4651461042a578063a51cccf3146104535761014b565b80632e602d29116101085780632e602d29146102705780633ccfd60b146102ad57806342842e0e146102c45780636352211e146102ed5780636e02007d1461032a57806370a08231146103555761014b565b806301ffc9a71461015057806306fdde031461018d578063081812fc146101b8578063095ea7b3146101f55780631fe543e31461021e57806323b872dd14610247575b600080fd5b34801561015c57600080fd5b5061017760048036038101906101729190612436565b6105a5565b604051610184919061247e565b60405180910390f35b34801561019957600080fd5b506101a2610606565b6040516101af9190612529565b60405180910390f35b3480156101c457600080fd5b506101df60048036038101906101da9190612581565b610698565b6040516101ec91906125ef565b60405180910390f35b34801561020157600080fd5b5061021c60048036038101906102179190612636565b6106b4565b005b34801561022a57600080fd5b50610245600480360381019061024091906127be565b6106ca565b005b34801561025357600080fd5b5061026e6004803603810190610269919061281a565b61078a565b005b34801561027c57600080fd5b5061029760048036038101906102929190612581565b61088c565b6040516102a491906125ef565b60405180910390f35b3480156102b957600080fd5b506102c26108bf565b005b3480156102d057600080fd5b506102eb60048036038101906102e6919061281a565b610973565b005b3480156102f957600080fd5b50610314600480360381019061030f9190612581565b610993565b60405161032191906125ef565b60405180910390f35b34801561033657600080fd5b5061033f6109a5565b60405161034c919061287c565b60405180910390f35b34801561036157600080fd5b5061037c60048036038101906103779190612897565b6109af565b604051610389919061287c565b60405180910390f35b34801561039e57600080fd5b506103a7610a69565b005b3480156103b557600080fd5b506103be610a7d565b6040516103cb919061287c565b60405180910390f35b3480156103e057600080fd5b506103e9610aa5565b6040516103f691906125ef565b60405180910390f35b34801561040b57600080fd5b50610414610acf565b6040516104219190612529565b60405180910390f35b34801561043657600080fd5b50610451600480360381019061044c91906128f0565b610b61565b005b34801561045f57600080fd5b5061047a60048036038101906104759190612581565b610b77565b60405161048791906129a7565b60405180910390f35b610498610c59565b6040516104a5919061287c565b60405180910390f35b3480156104ba57600080fd5b506104d560048036038101906104d09190612a77565b610e4b565b005b3480156104e357600080fd5b506104fe60048036038101906104f99190612581565b610e68565b60405161050b9190612529565b60405180910390f35b34801561052057600080fd5b5061053b60048036038101906105369190612afa565b610f7b565b604051610548919061247e565b60405180910390f35b34801561055d57600080fd5b5061056661100f565b6040516105739190612c46565b60405180910390f35b34801561058857600080fd5b506105a3600480360381019061059e9190612897565b6110e8565b005b6000634906490660e01b7bffffffffffffffffffffffffffffffffffffffffffffffffffffffff1916827bffffffffffffffffffffffffffffffffffffffffffffffffffffffff191614806105ff57506105fe8261116e565b5b9050919050565b60606000805461061590612c97565b80601f016020809104026020016040519081016040528092919081815260200182805461064190612c97565b801561068e5780601f106106635761010080835404028352916020019161068e565b820191906000526020600020905b81548152906001019060200180831161067157829003601f168201915b5050505050905090565b60006106a382611250565b506106ad826112d8565b9050919050565b6106c682826106c1611315565b61131d565b5050565b7f000000000000000000000000000000000000000000000000000000000000000073ffffffffffffffffffffffffffffffffffffffff163373ffffffffffffffffffffffffffffffffffffffff161461077c57337f00000000000000000000000000000000000000000000000000000000000000006040517f1cf993f4000000000000000000000000000000000000000000000000000000008152600401610773929190612cc8565b60405180910390fd5b610786828261132f565b5050565b600073ffffffffffffffffffffffffffffffffffffffff168273ffffffffffffffffffffffffffffffffffffffff16036107fc5760006040517f64a0ae920000000000000000000000000000000000000000000000000000000081526004016107f391906125ef565b60405180910390fd5b6000610810838361080b611315565b6114cf565b90508373ffffffffffffffffffffffffffffffffffffffff168173ffffffffffffffffffffffffffffffffffffffff1614610886578382826040517f64283d7b00000000000000000000000000000000000000000000000000000000815260040161087d93929190612cf1565b60405180910390fd5b50505050565b600a6020528060005260406000206000915054906101000a900473ffffffffffffffffffffffffffffffffffffffff1681565b6108c76116e9565b600047905060003373ffffffffffffffffffffffffffffffffffffffff16826040516108f290612d59565b60006040518083038185875af1925050503d806000811461092f576040519150601f19603f3d011682016040523d82523d6000602084013e610934565b606091505b505090508061096f576040517f7cdbbadf00000000000000000000000000000000000000000000000000000000815260040160405180910390fd5b5050565b61098e83838360405180602001604052806000815250610e4b565b505050565b600061099e82611250565b9050919050565b6000600954905090565b60008073ffffffffffffffffffffffffffffffffffffffff168273ffffffffffffffffffffffffffffffffffffffff1603610a225760006040517f89c62b64000000000000000000000000000000000000000000000000000000008152600401610a1991906125ef565b60405180910390fd5b600360008373ffffffffffffffffffffffffffffffffffffffff1673ffffffffffffffffffffffffffffffffffffffff168152602001908152602001600020549050919050565b610a716116e9565b610a7b6000611770565b565b60007f0000000000000000000000000000000000000000000000000000000000000000905090565b6000600760009054906101000a900473ffffffffffffffffffffffffffffffffffffffff16905090565b606060018054610ade90612c97565b80601f0160208091040260200160405190810160405280929190818152602001828054610b0a90612c97565b8015610b575780601f10610b2c57610100808354040283529160200191610b57565b820191906000526020600020905b815481529060010190602001808311610b3a57829003601f168201915b5050505050905090565b610b73610b6c611315565b8383611836565b5050565b600080600090506000610b886119a5565b905060005b6003811015610c2157828510158015610bc7575082828260038110610bb557610bb4612d6e565b5b6020020151610bc49190612dcc565b85105b15610be957806002811115610bdf57610bde612930565b5b9350505050610c54565b818160038110610bfc57610bfb612d6e565b5b602002015183610c0c9190612dcc565b92508080610c1990612e00565b915050610b8d565b506040517f2b8299b500000000000000000000000000000000000000000000000000000000815260040160405180910390fd5b919050565b60007f0000000000000000000000000000000000000000000000000000000000000000341015610cb5576040517fa96edbb500000000000000000000000000000000000000000000000000000000815260040160405180910390fd5b7f000000000000000000000000000000000000000000000000000000000000000073ffffffffffffffffffffffffffffffffffffffff16635d3b1d307f00000000000000000000000000000000000000000000000000000000000000007f000000000000000000000000000000000000000000000000000000000000000060037f000000000000000000000000000000000000000000000000000000000000000060016040518663ffffffff1660e01b8152600401610d78959493929190612ec0565b6020604051808303816000875af1158015610d97573d6000803e3d6000fd5b505050506040513d601f19601f82011682018060405250810190610dbb9190612f28565b905033600a600083815260200190815260200160002060006101000a81548173ffffffffffffffffffffffffffffffffffffffff021916908373ffffffffffffffffffffffffffffffffffffffff1602179055507ff873236e6cc0ecc5be1a9a35c95ee5b8d1ac4cc7bfef0cc5060391d6cc98e26b8133604051610e40929190612f55565b60405180910390a190565b610e5684848461078a565b610e62848484846119d0565b50505050565b6060610e7382611250565b506000600660008481526020019081526020016000208054610e9490612c97565b80601f0160208091040260200160405190810160405280929190818152602001828054610ec090612c97565b8015610f0d5780601f10610ee257610100808354040283529160200191610f0d565b820191906000526020600020905b815481529060010190602001808311610ef057829003601f168201915b505050505090506000610f1e611b87565b90506000815103610f33578192505050610f76565b600082511115610f68578082604051602001610f50929190612fba565b60405160208183030381529060405292505050610f76565b610f7184611b9e565b925050505b919050565b6000600560008473ffffffffffffffffffffffffffffffffffffffff1673ffffffffffffffffffffffffffffffffffffffff16815260200190815260200160002060008373ffffffffffffffffffffffffffffffffffffffff1673ffffffffffffffffffffffffffffffffffffffff16815260200190815260200160002060009054906101000a900460ff16905092915050565b60606008805480602002602001604051908101604052809291908181526020016000905b828210156110df57838290600052602060002001805461105290612c97565b80601f016020809104026020016040519081016040528092919081815260200182805461107e90612c97565b80156110cb5780601f106110a0576101008083540402835291602001916110cb565b820191906000526020600020905b8154815290600101906020018083116110ae57829003601f168201915b505050505081526020019060010190611033565b50505050905090565b6110f06116e9565b600073ffffffffffffffffffffffffffffffffffffffff168173ffffffffffffffffffffffffffffffffffffffff16036111625760006040517f1e4fbdf700000000000000000000000000000000000000000000000000000000815260040161115991906125ef565b60405180910390fd5b61116b81611770565b50565b60007f80ac58cd000000000000000000000000000000000000000000000000000000007bffffffffffffffffffffffffffffffffffffffffffffffffffffffff1916827bffffffffffffffffffffffffffffffffffffffffffffffffffffffff1916148061123957507f5b5e139f000000000000000000000000000000000000000000000000000000007bffffffffffffffffffffffffffffffffffffffffffffffffffffffff1916827bffffffffffffffffffffffffffffffffffffffffffffffffffffffff1916145b80611249575061124882611c07565b5b9050919050565b60008061125c83611c71565b9050600073ffffffffffffffffffffffffffffffffffffffff168173ffffffffffffffffffffffffffffffffffffffff16036112cf57826040517f7e2732890000000000000000000000000000000000000000000000000000000081526004016112c6919061287c565b60405180910390fd5b80915050919050565b60006004600083815260200190815260200160002060009054906101000a900473ffffffffffffffffffffffffffffffffffffffff169050919050565b600033905090565b61132a8383836001611cae565b505050565b6000600a600084815260200190815260200160002060009054906101000a900473ffffffffffffffffffffffffffffffffffffffff16905060006009549050600060648460008151811061138657611385612d6e565b5b6020026020010151611398919061300d565b905060006113a582610b77565b9050600954600960008282546113bb9190612dcc565b925050819055506113cc8484611e73565b61148e8360088360028111156113e5576113e4612930565b5b815481106113f6576113f5612d6e565b5b90600052602060002001805461140b90612c97565b80601f016020809104026020016040519081016040528092919081815260200182805461143790612c97565b80156114845780601f1061145957610100808354040283529160200191611484565b820191906000526020600020905b81548152906001019060200180831161146757829003601f168201915b5050505050611e91565b7f8a269f26b688e110e9cbd887d163dab35cae678fa353a0292de532c0cac1ecdc81856040516114bf92919061303e565b60405180910390a1505050505050565b6000806114db84611c71565b9050600073ffffffffffffffffffffffffffffffffffffffff168373ffffffffffffffffffffffffffffffffffffffff161461151d5761151c818486611eed565b5b600073ffffffffffffffffffffffffffffffffffffffff168173ffffffffffffffffffffffffffffffffffffffff16146115ae5761155f600085600080611cae565b6001600360008373ffffffffffffffffffffffffffffffffffffffff1673ffffffffffffffffffffffffffffffffffffffff168152602001908152602001600020600082825403925050819055505b600073ffffffffffffffffffffffffffffffffffffffff168573ffffffffffffffffffffffffffffffffffffffff1614611631576001600360008773ffffffffffffffffffffffffffffffffffffffff1673ffffffffffffffffffffffffffffffffffffffff168152602001908152602001600020600082825401925050819055505b846002600086815260200190815260200160002060006101000a81548173ffffffffffffffffffffffffffffffffffffffff021916908373ffffffffffffffffffffffffffffffffffffffff160217905550838573ffffffffffffffffffffffffffffffffffffffff168273ffffffffffffffffffffffffffffffffffffffff167fddf252ad1be2c89b69c2b068fc378daa952ba7f163c4a11628f55a4df523b3ef60405160405180910390a4809150509392505050565b6116f1611315565b73ffffffffffffffffffffffffffffffffffffffff1661170f610aa5565b73ffffffffffffffffffffffffffffffffffffffff161461176e57611732611315565b6040517f118cdaa700000000000000000000000000000000000000000000000000000000815260040161176591906125ef565b60405180910390fd5b565b6000600760009054906101000a900473ffffffffffffffffffffffffffffffffffffffff16905081600760006101000a81548173ffffffffffffffffffffffffffffffffffffffff021916908373ffffffffffffffffffffffffffffffffffffffff1602179055508173ffffffffffffffffffffffffffffffffffffffff168173ffffffffffffffffffffffffffffffffffffffff167f8be0079c531659141344cd1fd0a4f28419497f9722a3daafe3b4186f6b6457e060405160405180910390a35050565b600073ffffffffffffffffffffffffffffffffffffffff168273ffffffffffffffffffffffffffffffffffffffff16036118a757816040517f5b08ba1800000000000000000000000000000000000000000000000000000000815260040161189e91906125ef565b60405180910390fd5b80600560008573ffffffffffffffffffffffffffffffffffffffff1673ffffffffffffffffffffffffffffffffffffffff16815260200190815260200160002060008473ffffffffffffffffffffffffffffffffffffffff1673ffffffffffffffffffffffffffffffffffffffff16815260200190815260200160002060006101000a81548160ff0219169083151502179055508173ffffffffffffffffffffffffffffffffffffffff168373ffffffffffffffffffffffffffffffffffffffff167f17307eab39ab6107e8899845ad3d59bd9653f200f220920489ca2b5937696c3183604051611998919061247e565b60405180910390a3505050565b6119ad6123a8565b6040518060600160405280600a8152602001601e81526020016064815250905090565b60008373ffffffffffffffffffffffffffffffffffffffff163b1115611b81578273ffffffffffffffffffffffffffffffffffffffff1663150b7a02611a14611315565b8685856040518563ffffffff1660e01b8152600401611a3694939291906130bc565b6020604051808303816000875af1925050508015611a7257506040513d601f19601f82011682018060405250810190611a6f919061311d565b60015b611af6573d8060008114611aa2576040519150601f19603f3d011682016040523d82523d6000602084013e611aa7565b606091505b506000815103611aee57836040517f64a0ae92000000000000000000000000000000000000000000000000000000008152600401611ae591906125ef565b60405180910390fd5b805181602001fd5b63150b7a0260e01b7bffffffffffffffffffffffffffffffffffffffffffffffffffffffff1916817bffffffffffffffffffffffffffffffffffffffffffffffffffffffff191614611b7f57836040517f64a0ae92000000000000000000000000000000000000000000000000000000008152600401611b7691906125ef565b60405180910390fd5b505b50505050565b606060405180602001604052806000815250905090565b6060611ba982611250565b506000611bb4611b87565b90506000815111611bd45760405180602001604052806000815250611bff565b80611bde84611fb1565b604051602001611bef929190612fba565b6040516020818303038152906040525b915050919050565b60007f01ffc9a7000000000000000000000000000000000000000000000000000000007bffffffffffffffffffffffffffffffffffffffffffffffffffffffff1916827bffffffffffffffffffffffffffffffffffffffffffffffffffffffff1916149050919050565b60006002600083815260200190815260200160002060009054906101000a900473ffffffffffffffffffffffffffffffffffffffff169050919050565b8080611ce75750600073ffffffffffffffffffffffffffffffffffffffff168273ffffffffffffffffffffffffffffffffffffffff1614155b15611e1b576000611cf784611250565b9050600073ffffffffffffffffffffffffffffffffffffffff168373ffffffffffffffffffffffffffffffffffffffff1614158015611d6257508273ffffffffffffffffffffffffffffffffffffffff168173ffffffffffffffffffffffffffffffffffffffff1614155b8015611d755750611d738184610f7b565b155b15611db757826040517fa9fbf51f000000000000000000000000000000000000000000000000000000008152600401611dae91906125ef565b60405180910390fd5b8115611e1957838573ffffffffffffffffffffffffffffffffffffffff168273ffffffffffffffffffffffffffffffffffffffff167f8c5be1e5ebec7d5bd14f71427d1e84f3dd0314c0f7b2291e5b200ac8c7c3b92560405160405180910390a45b505b836004600085815260200190815260200160002060006101000a81548173ffffffffffffffffffffffffffffffffffffffff021916908373ffffffffffffffffffffffffffffffffffffffff16021790555050505050565b611e8d82826040518060200160405280600081525061207f565b5050565b80600660008481526020019081526020016000209081611eb191906132f6565b507ff8e1a15aba9398e019f0b49df1a4fde98ee17ae345cb5f6b5e2c27f5033e8ce782604051611ee1919061287c565b60405180910390a15050565b611ef883838361209b565b611fac57600073ffffffffffffffffffffffffffffffffffffffff168373ffffffffffffffffffffffffffffffffffffffff1603611f6d57806040517f7e273289000000000000000000000000000000000000000000000000000000008152600401611f64919061287c565b60405180910390fd5b81816040517f177e802f000000000000000000000000000000000000000000000000000000008152600401611fa39291906133c8565b60405180910390fd5b505050565b606060006001611fc08461215c565b01905060008167ffffffffffffffff811115611fdf57611fde61267b565b5b6040519080825280601f01601f1916602001820160405280156120115781602001600182028036833780820191505090505b509050600082602001820190505b600115612074578080600190039150507f3031323334353637383961626364656600000000000000000000000000000000600a86061a8153600a858161206857612067612fde565b5b0494506000850361201f575b819350505050919050565b61208983836122af565b61209660008484846119d0565b505050565b60008073ffffffffffffffffffffffffffffffffffffffff168373ffffffffffffffffffffffffffffffffffffffff161415801561215357508273ffffffffffffffffffffffffffffffffffffffff168473ffffffffffffffffffffffffffffffffffffffff16148061211457506121138484610f7b565b5b8061215257508273ffffffffffffffffffffffffffffffffffffffff1661213a836112d8565b73ffffffffffffffffffffffffffffffffffffffff16145b5b90509392505050565b600080600090507a184f03e93ff9f4daa797ed6e38ed64bf6a1f01000000000000000083106121ba577a184f03e93ff9f4daa797ed6e38ed64bf6a1f01000000000000000083816121b0576121af612fde565b5b0492506040810190505b6d04ee2d6d415b85acef810000000083106121f7576d04ee2d6d415b85acef810000000083816121ed576121ec612fde565b5b0492506020810190505b662386f26fc10000831061222657662386f26fc10000838161221c5761221b612fde565b5b0492506010810190505b6305f5e100831061224f576305f5e100838161224557612244612fde565b5b0492506008810190505b612710831061227457612710838161226a57612269612fde565b5b0492506004810190505b60648310612297576064838161228d5761228c612fde565b5b0492506002810190505b600a83106122a6576001810190505b80915050919050565b600073ffffffffffffffffffffffffffffffffffffffff168273ffffffffffffffffffffffffffffffffffffffff16036123215760006040517f64a0ae9200000000000000000000000000000000000000000000000000000000815260040161231891906125ef565b60405180910390fd5b600061232f838360006114cf565b9050600073ffffffffffffffffffffffffffffffffffffffff168173ffffffffffffffffffffffffffffffffffffffff16146123a35760006040517f73c6ac6e00000000000000000000000000000000000000000000000000000000815260040161239a91906125ef565b60405180910390fd5b505050565b6040518060600160405280600390602082028036833780820191505090505090565b6000604051905090565b600080fd5b600080fd5b60007fffffffff0000000000000000000000000000000000000000000000000000000082169050919050565b612413816123de565b811461241e57600080fd5b50565b6000813590506124308161240a565b92915050565b60006020828403121561244c5761244b6123d4565b5b600061245a84828501612421565b91505092915050565b60008115159050919050565b61247881612463565b82525050565b6000602082019050612493600083018461246f565b92915050565b600081519050919050565b600082825260208201905092915050565b60005b838110156124d35780820151818401526020810190506124b8565b60008484015250505050565b6000601f19601f8301169050919050565b60006124fb82612499565b61250581856124a4565b93506125158185602086016124b5565b61251e816124df565b840191505092915050565b6000602082019050818103600083015261254381846124f0565b905092915050565b6000819050919050565b61255e8161254b565b811461256957600080fd5b50565b60008135905061257b81612555565b92915050565b600060208284031215612597576125966123d4565b5b60006125a58482850161256c565b91505092915050565b600073ffffffffffffffffffffffffffffffffffffffff82169050919050565b60006125d9826125ae565b9050919050565b6125e9816125ce565b82525050565b600060208201905061260460008301846125e0565b92915050565b612613816125ce565b811461261e57600080fd5b50565b6000813590506126308161260a565b92915050565b6000806040838503121561264d5761264c6123d4565b5b600061265b85828601612621565b925050602061266c8582860161256c565b9150509250929050565b600080fd5b7f4e487b7100000000000000000000000000000000000000000000000000000000600052604160045260246000fd5b6126b3826124df565b810181811067ffffffffffffffff821117156126d2576126d161267b565b5b80604052505050565b60006126e56123ca565b90506126f182826126aa565b919050565b600067ffffffffffffffff8211156127115761271061267b565b5b602082029050602081019050919050565b600080fd5b600061273a612735846126f6565b6126db565b9050808382526020820190506020840283018581111561275d5761275c612722565b5b835b818110156127865780612772888261256c565b84526020840193505060208101905061275f565b5050509392505050565b600082601f8301126127a5576127a4612676565b5b81356127b5848260208601612727565b91505092915050565b600080604083850312156127d5576127d46123d4565b5b60006127e38582860161256c565b925050602083013567ffffffffffffffff811115612804576128036123d9565b5b61281085828601612790565b9150509250929050565b600080600060608486031215612833576128326123d4565b5b600061284186828701612621565b935050602061285286828701612621565b92505060406128638682870161256c565b9150509250925092565b6128768161254b565b82525050565b6000602082019050612891600083018461286d565b92915050565b6000602082840312156128ad576128ac6123d4565b5b60006128bb84828501612621565b91505092915050565b6128cd81612463565b81146128d857600080fd5b50565b6000813590506128ea816128c4565b92915050565b60008060408385031215612907576129066123d4565b5b600061291585828601612621565b9250506020612926858286016128db565b9150509250929050565b7f4e487b7100000000000000000000000000000000000000000000000000000000600052602160045260246000fd5b600381106129705761296f612930565b5b50565b60008190506129818261295f565b919050565b600061299182612973565b9050919050565b6129a181612986565b82525050565b60006020820190506129bc6000830184612998565b92915050565b600080fd5b600067ffffffffffffffff8211156129e2576129e161267b565b5b6129eb826124df565b9050602081019050919050565b82818337600083830152505050565b6000612a1a612a15846129c7565b6126db565b905082815260208101848484011115612a3657612a356129c2565b5b612a418482856129f8565b509392505050565b600082601f830112612a5e57612a5d612676565b5b8135612a6e848260208601612a07565b91505092915050565b60008060008060808587031215612a9157612a906123d4565b5b6000612a9f87828801612621565b9450506020612ab087828801612621565b9350506040612ac18782880161256c565b925050606085013567ffffffffffffffff811115612ae257612ae16123d9565b5b612aee87828801612a49565b91505092959194509250565b60008060408385031215612b1157612b106123d4565b5b6000612b1f85828601612621565b9250506020612b3085828601612621565b9150509250929050565b600081519050919050565b600082825260208201905092915050565b6000819050602082019050919050565b600082825260208201905092915050565b6000612b8282612499565b612b8c8185612b66565b9350612b9c8185602086016124b5565b612ba5816124df565b840191505092915050565b6000612bbc8383612b77565b905092915050565b6000602082019050919050565b6000612bdc82612b3a565b612be68185612b45565b935083602082028501612bf885612b56565b8060005b85811015612c345784840389528151612c158582612bb0565b9450612c2083612bc4565b925060208a01995050600181019050612bfc565b50829750879550505050505092915050565b60006020820190508181036000830152612c608184612bd1565b905092915050565b7f4e487b7100000000000000000000000000000000000000000000000000000000600052602260045260246000fd5b60006002820490506001821680612caf57607f821691505b602082108103612cc257612cc1612c68565b5b50919050565b6000604082019050612cdd60008301856125e0565b612cea60208301846125e0565b9392505050565b6000606082019050612d0660008301866125e0565b612d13602083018561286d565b612d2060408301846125e0565b949350505050565b600081905092915050565b50565b6000612d43600083612d28565b9150612d4e82612d33565b600082019050919050565b6000612d6482612d36565b9150819050919050565b7f4e487b7100000000000000000000000000000000000000000000000000000000600052603260045260246000fd5b7f4e487b7100000000000000000000000000000000000000000000000000000000600052601160045260246000fd5b6000612dd78261254b565b9150612de28361254b565b9250828201905080821115612dfa57612df9612d9d565b5b92915050565b6000612e0b8261254b565b91507fffffffffffffffffffffffffffffffffffffffffffffffffffffffffffffffff8203612e3d57612e3c612d9d565b5b600182019050919050565b6000819050919050565b612e5b81612e48565b82525050565b600067ffffffffffffffff82169050919050565b612e7e81612e61565b82525050565b600061ffff82169050919050565b612e9b81612e84565b82525050565b600063ffffffff82169050919050565b612eba81612ea1565b82525050565b600060a082019050612ed56000830188612e52565b612ee26020830187612e75565b612eef6040830186612e92565b612efc6060830185612eb1565b612f096080830184612eb1565b9695505050505050565b600081519050612f2281612555565b92915050565b600060208284031215612f3e57612f3d6123d4565b5b6000612f4c84828501612f13565b91505092915050565b6000604082019050612f6a600083018561286d565b612f7760208301846125e0565b9392505050565b600081905092915050565b6000612f9482612499565b612f9e8185612f7e565b9350612fae8185602086016124b5565b80840191505092915050565b6000612fc68285612f89565b9150612fd28284612f89565b91508190509392505050565b7f4e487b7100000000000000000000000000000000000000000000000000000000600052601260045260246000fd5b60006130188261254b565b91506130238361254b565b92508261303357613032612fde565b5b828206905092915050565b60006040820190506130536000830185612998565b61306060208301846125e0565b9392505050565b600081519050919050565b600082825260208201905092915050565b600061308e82613067565b6130988185613072565b93506130a88185602086016124b5565b6130b1816124df565b840191505092915050565b60006080820190506130d160008301876125e0565b6130de60208301866125e0565b6130eb604083018561286d565b81810360608301526130fd8184613083565b905095945050505050565b6000815190506131178161240a565b92915050565b600060208284031215613133576131326123d4565b5b600061314184828501613108565b91505092915050565b60008190508160005260206000209050919050565b60006020601f8301049050919050565b600082821b905092915050565b6000600883026131ac7fffffffffffffffffffffffffffffffffffffffffffffffffffffffffffffffff8261316f565b6131b6868361316f565b95508019841693508086168417925050509392505050565b6000819050919050565b60006131f36131ee6131e98461254b565b6131ce565b61254b565b9050919050565b6000819050919050565b61320d836131d8565b613221613219826131fa565b84845461317c565b825550505050565b600090565b613236613229565b613241818484613204565b505050565b5b818110156132655761325a60008261322e565b600181019050613247565b5050565b601f8211156132aa5761327b8161314a565b6132848461315f565b81016020851015613293578190505b6132a761329f8561315f565b830182613246565b50505b505050565b600082821c905092915050565b60006132cd600019846008026132af565b1980831691505092915050565b60006132e683836132bc565b9150826002028217905092915050565b6132ff82612499565b67ffffffffffffffff8111156133185761331761267b565b5b6133228254612c97565b61332d828285613269565b600060209050601f831160018114613360576000841561334e578287015190505b61335885826132da565b8655506133c0565b601f19841661336e8661314a565b60005b8281101561339657848901518255600182019150602085019450602081019050613371565b868310156133b357848901516133af601f8916826132bc565b8355505b6001600288020188555050505b505050505050565b60006040820190506133dd60008301856125e0565b6133ea602083018461286d565b939250505056fea264697066735822122072b65533c87b4a1ed3e46240532b656f1daa2cf55c9205e83dee18bbcd5843ef64736f6c63430008140033",
  "linkReferences": {},
  "deployedLinkReferences": {}
}